:020000040800F2
:10000000008000201905000869050008C9290008BA
:10001000690500086905000869050008000000007E
:10002000000000000000000000000000690500085A
:100030006905000800000000690500083D2A000865
:1000400069050008690500086905000869050008D8
:1000500069050008690500086905000869050008C8
:1000600069050008690500086905000869050008B8
:1000700069050008690500086905000869050008A8
:100080006905000800000000B9280008690500089B
:100090006905000869050008690500086905000888
:1000A000E9280008D128000869050008690500084A
:1000B0006905000869050008252900086905000888
:1000C0006905000869050008690500086905000858
:1000D00069050008690500085D2900086905000830
:1000E0006D2A00086905000869050008690500080F
:1000F000690500086905000869050008000000009E
:100100000000000069050008000000006905000803
:10011000690500080000000069050008690500087D
:1001200069050008690500086905000869050008F7
:1001300069050008000000000000000069050008D3
:1001400069050008690500080000000000000000C3
:10015000000000000000000000000000000000009F
:100160000000000000000000000000006905000819
:100170006905000800000000000000000000000009
:1001800000000000690500080000000000000000F9
:10019000000000000000000000000000000000005F
:1001A0000000000000000000690500086905000863
:1001B00069050008690500086905000800000000DD
:1001C00000000000690500080000000000000000B9
:0801D00069050008690500083B
:1001D80010B5054C237833B9044B13B10448AFF379
:1001E80000800123237010BDEC05002000000000F2
:1001F8005C93000808B5034B1BB103490348AFF3F0
:10020800008008BD00000000F00500205C93000895
:1002180053B94AB9002908BF00281CBF4FF0FF3165
:100228004FF0FF3000F072B9ADF1080C6DE904CE63
:1002380000F006F8DDF804E0DDE9022304B07047B9
:100248002DE9F047089E04468846002B4BD18A4288
:10025800154667D9B2FA82F24AB1C2F1200701FA0B
:1002680002F320FA07F7954047EA030894404FEA5B
:10027800154E230CB8FBFEF71FFA85FC0EFB1788FA
:1002880043EA084307FB0CF1994209D9EB1807F137
:10029800FF3080F01B81994240F21881023F2B44C5
:1002A8005B1AA4B2B3FBFEF00EFB103344EA03441E
:1002B80000FB0CFCA44509D92C1900F1FF3380F090
:1002C8000781A44540F2048102382C4440EA0740E3
:1002D800A4EB0C0400271EB1D4400023C6E9004358
:1002E8003946BDE8F0878B4209D9002E00F0EB8033
:1002F8000027C6E9000138463946BDE8F087B3FA59
:1003080083F7002F47D18B4202D3824200F2FA8052
:10031800841A61EB030301209846002EE0D0C6E959
:100328000048DDE702B9FFDEB2FA82F2002A40F0A7
:100338008F80491B4FEA154E1FFA85F80127B1FB3C
:10034800FEFC230C0EFB1C1143EA014308FB0CF1D5
:10035800994207D9EB180CF1FF3002D2994200F20A
:10036800CD808446591AA3B2B1FBFEF00EFB1014DF
:1003780043EA044408FB00F8A04507D92C1900F10A
:10038800FF3302D2A04500F2B6801846A4EB080459
:1003980040EA0C409FE7C7F1200CBB4022FA0CFE54
:1003A8004EEA030E01FA07F420FA0CF521FA0CF3D1
:1003B8004FEA1E482543B3FBF8F92C0C08FB193308
:1003C8001FFA8EFA44EA034309FB0AF49C4202FA34
:1003D80007F200FA07F10BD91EEB030309F1FF300E
:1003E80080F087809C4240F28480A9F1020973441E
:1003F8001B1BADB2B3FBF8F008FB103345EA03440E
:1004080000FB0AFAA24508D91EEB040400F1FF33E9
:100418006BD2A24569D90238744440EA0940A0FB6E
:100428000289A4EB0A044C45C2464B4654D351D02A
:10043800002E69D0B1EB0A0564EB030404FA0CFC46
:10044800FD40FC404CEA0505C6E90054002747E793
:10045800C2F1200320FA03F7954001FA02F021FACD
:1004680003F34FEA154E3843010CB3FBFEF71FFAAE
:1004780085F80EFB173341EA034107FB08F38B426B
:1004880004FA02F407D9691807F1FF3C2FD28B420E
:100498002DD9023F2944CB1A81B2B3FBFEF00EFBE3
:1004A800103341EA034100FB08F38B4207D969186E
:1004B80000F1FF3C17D28B4215D902382944C91ADA
:1004C80040EA07473BE73746304609E70746E7E68D
:1004D8001846FBE64145ABD2B8EB020A69EB0E02BF
:1004E80001381346A4E76046E9E7184695E76746EA
:1004F800D1E781467CE702382C4447E7ACF1020C8F
:100508002B442FE7384608E73746E9E6704700BF2F
:100518000D4885460D480E490E4A002302E0D4587E
:10052800C4500433C4188C42F9D30B4A0B4C002333
:1005380001E013600432A242FBD302F0F9FE08F096
:10054800DDFE00F071F8FEE70080002000000020CA
:10055800EC05002008960008EC050020800B002020
:10056800FEE70000024A136843F001031360704776
:100578000008005008B5002290F8301002F0BEFCC8
:100588000849094A4B6800B223F47F4323F0F0037B
:1005980000F5004018434860536843F00103536076
:1005A80008BD00BF080800500008005070B50021C1
:1005B800A4B00C4605A8382208F0C4FE21464422FF
:1005C80013A8CDE90044CDE90244049408F0BAFE2A
:1005D800204604F0E1F80122022303254FF480317C
:1005E80005920826552205A8CDE90F2606910C93F9
:1005F8000E93CDE911330D9504F04CF931460F23D4
:1006080068460093CDE90154CDE9034404F094FB16
:1006180048F202024FF0805313A8159413922293C4
:1006280004F05AFD24B070BD2DE980480024A9B01B
:1006380002F0B0FEFFF7BAFFCDE91A44BC4B1C9498
:10064800DA6CBC49BC48BD4DBD4E42F00402DA64C8
:10065800DA6C02F004020192019ADA6C42F020028C
:10066800DA64DA6C02F020020292029ADA6C42F042
:100678000102DA64DA6C02F001020392039ADA6C7E
:1006880042F00202DA64DB6C199103F0020304936E
:1006980018A9049B4FF48063189303F013FF2146B5
:1006A8003C2218A8CDE90B440D9408F04BFE2022FB
:1006B800214610A808F046FE02274FF001084FF027
:1006C80004094FF0A0434FF4002B4FF4004A28468A
:1006D800C5E9003BC5F80CA0AC602C612C776C77A1
:1006E80085F82440C5E90B4485F83840EC6385F863
:1006F8004040C5E905892F6202F084FE0BA928460F
:100708000B9403F043FC8F4A20970923CDE9182363
:1007180001227F23CDE91A2304220023CDE91C23DB
:1007280018A9842280232846CDE922238DF8844005
:100738008DF885408DF886408DF8904003F084F957
:10074800814A40F20F1318A92846CDE9182303F06F
:100758007BF97E4B10934FF0060C7F2310A9284697
:10076800CDF844C01393CDF84890CDE9149402F025
:1007780057FF2846764D0C2310A9CDE9105302F0F7
:100788004FFF21463C2218A808F0DCFD714BC6F843
:1007980004B03046C6E9024A3360C6E90448C6F8E0
:1007A800189034777477C6F8208086F8244086F845
:1007B8003840F46386F8404002F024FE614A2097EE
:1007C8000923CDE9182301227F23CDE91A23042226
:1007D8000023CDE91C2318A9842280233046CDE9C3
:1007E80022238DF884408DF885408DF886408DF859
:1007F800904003F029F9584B18A940F20F123046DF
:10080800CDE9183203F020F9544B554A1A604FF4D9
:10081800400518469D605C60C3E90344C3E905448C
:1008280003F01EFC4F4B504A9D6018461A605C60EE
:10083800C3E90344C3E9054403F012FC4B4B4C4A9B
:100848001A6018469D605C60C3E90344C3E9054427
:1008580003F006FC4748484B484D036003F0A4FCEE
:100868002146302218A808F06DFD454B2B6028461C
:1008780003F02AFD4FF0000A18A94FF0020B284692
:10088800224605250026CDE91AABCDE91CABCDE9FA
:100898001E5618978DF864408DF8654003F02AFDC0
:1008A800384B394A1A604FF0400B4FF4003A4FF476
:1008B80040461846C3E909A6C3F808B05C601C6145
:1008C8001C759C61DC6203F0E3FE304B304AC3F8D0
:1008D80008B01846C3E909A61A605C601C611C755B
:1008E8009C61DC6203F0D4FE2A4B2B4A2B4DC3F8E3
:1008F80008B01846C3E909A61A605C601C6183F851
:1009080014809C61DC6203F0C3FE2146342218A8DF
:10091800CDE90B44CDE90D440F9405940894CDE935
:100928001044CDE91244CDE91444169438E000BFD0
:10093800001002400000211000080048E8070020CD
:10094800BC0600200800900C001060320200300441
:100958002000F0140001005000008CCB6407002038
:1009680000020140BC08002004020140C407002026
:100978000C02014054080020000C0240A806002088
:100988000008005088070020000301402C060020C2
:100998000403014028070020080301407C080020C8
:1009A800CDE90644CDE9094408F0CCFC2023804A6F
:1009B800AB604FF4807B4FF4A65328462A60C5E904
:1009C800033B6C60C5E9058404F0D2FC284604F0BA
:1009D80059FD4FF0100A062328460BA9CDE90B3A1A
:1009E800702605F07DF805A928460596CDE9064448
:1009F80005F040FA08AA39462846CDE908780A944D
:100A080005F0B8FA08AA39462846CDF8209005F02E
:100A1800B1FA08AA39462846CDF820A005F0AAFA66
:100A28006023224610A928461093CDE91144CDE948
:100A38001344CDE9154404F0ADFD4A4610A92846F3
:100A4800119404F0A7FD10A928460822119404F077
:100A5800A1FD0C2210A92846CDE91064139404F0D6
:100A680099FD4FF480634FF0440E4FF4005C514EF3
:100A7800CDF868B04FF0030A18A94FF080722846E5
:100A880019934FF4006B4FF00073CDF86CE0CDF87C
:100A980074C02092CDE9213A1C94CDE91E44CDE9D9
:100AA8002344CDF860B005F017FA284601F072FE2D
:100AB800414A32604FF6FF733046F3601094CDE937
:100AC80011441394CDE91844CDE91A44CDE90B44F7
:100AD8000D94C6E901443461B46104F049FC4FF453
:100AE800805310A93046109304F032FF0F2318A941
:100AF8003046324DCDE91A34CDE9184405F05AF99B
:100B08000BA9502330460B930D9405F0B3F92C4AEA
:100B18002C610C236B6128464FF4E133C5E90023AF
:100B2800C5E90244C5E90644C5E90844AC6205F0D4
:100B3800CBFA2146284606F0C9F82146284606F091
:100B480017F9284606F0A4F801F034F94246494658
:100B5800182003F055FB182003F088FB2246214695
:100B6800192003F04DFB192003F080FB224639467B
:100B7800122003F045FB122003F078FB2246514671
:100B88001E2003F03DFB1E2003F070FB4246514639
:100B9800262003F035FB262003F068FB2820224698
:100BA800514603F02DFB282003F060FBFEE700BF51
:100BB800002C01406806002000080040E0080020E2
:100BC80000440040014B186800F03EB84C0A002071
:100BD800014B186800F042B84C0A0020014B186815
:100BE80000F082B84C0A002010B400240473C0F846
:100BF8000E40C4820476C0E9001283605DF8044B9D
:100C0800704700BF0123C181C28203730376437614
:100C1800704700BF30B40023022501240573047611
:100C28000182C282437630BC704700BF10B40122F3
:100C380083B003240023C0F81210047302764376AD
:100C480003B05DF8044B704710B5032104460068F3
:100C580008F056F908B10123237610BD0068072172
:100C680008F04EB9006808F0C1B900BF006801215A
:100C780008F046B910B1037E012B00D07047017B04
:100C8800022910B504461FD0032904D001290BD02E
:100C98000323237610BD8268D0F81210116182F800
:100CA80024300223237610BDD0E90103002283F803
:100CB800242008F03FF8E28AB4F90E10606808F0C2
:100CC8003DF80028E4D0ECE7D0E90103002183F8DF
:100CD800241008F02FF8E28AB4F91010606808F0C0
:100CE8002DF80028D4D0DCE7006808F07DB900BFF3
:100CF800407E7047037B012B0CBFB0F90E0000202B
:100D0800704700BF406808F063B800BF08B5406886
:100D180007F0F6FFBDE8084007F09CBF406807F001
:100D2800F9BF00BF8368186883B282B063F30F000D
:100D380002B070478368586883B282B063F30F00CB
:100D480002B070478368D86883B282B063F30F003B
:100D580002B070478368186983B282B063F30F00EA
:100D680002B070478368D3F8160083B282B063F389
:100D78000F0002B0704700BF8368D3F81A0083B22F
:100D880082B063F30F0002B0704700BF8368B3F905
:100D98001E007047836859829982704710B5D0E960
:100DA800010408F079F8C0F30F432082638210BD74
:100DB80044F6E61102B2C0F30F4312FB01F013FB35
:100DC80001F34042A0EB4300C013B0F5004F84B0DC
:100DD80004DA10F5004F0CDA074B01E047F6FF7311
:100DE80092B200209BB262F30F0063F31F4004B07D
:100DF800704703B2F4D1EFE70180FFFF094B0A4ABD
:100E08001A6000F1FF4000F5FE0058609B68002062
:100E18009AB262F30F001B0C82B063F31F4002B05A
:100E2800704700BF000C02404000600030B585B03C
:100E380004B2019005140846FFF7E0FF01B204FB75
:100E480001F3001405FB1033DB13B3F5004F04DA8C
:100E580013F5004F1EDA114A01E047F6FF7201FB55
:100E680005F104FB0010C013B0F5004F04DA10F5CB
:100E7800004F0CDA094B01E047F6FF7392B20020ED
:100E88009BB262F30F0063F31F4005B030BD03B29D
:100E9800F4D1EFE71AB2E2D1DDE700BF0180FFFF2E
:100EA80030B585B004B2051401900846FFF7A6FFD7
:100EB800031405FB03F200B204FB002200FB05F05B
:100EC80004FB1303C2F3CF320020C3F3CF3362F322
:100ED8000F0063F31F4005B030BD00BFF8B500EB4D
:100EE800C003184A00EB43035B0000249F1803F17A
:100EF8000C069C50054603F1160126237C6003FB73
:100F08000523B450B71810487C608E18DC8350F85D
:100F180025008C50214674601C8406F081FC0B4B24
:100F2800214653F8250006F07BFC094B53F82500B1
:100F380007F0E8FE074B53F82500BDE8F84006F037
:100F480083BE00BF9409002088090020440A0020BD
:100F5800480A0020800900202DE9F04FDFF8C4B1CD
:100F68005A4CDFF8C4815A4DDFF8C0A1594FDFF859
:100F7800C091594E87B002905846039107F0A0FFE0
:100F88005649574B5748584A206000240C701A603D
:100F980007F026F906F0EAFC404606F02DFC534B14
:100FA80053482B60CAF8008005F0AAFFDAF8001051
:100FB8004F4A2868DFF87C8107F08EFE4D4806F01E
:100FC8001BFC4D4806F018FC4C4A4D4B4948106034
:100FD8004C4A4949116018463B6007F0E1FD4A490F
:100FE8004A4B3A680B604846C3F81021C3F80C61B5
:100FF80006F0BCFB464B4748474AC0F800901846E5
:1010080013604FF0010907F019FE2046FFF766FF4D
:1010180086F82490286807F03FFF0346C0F30F4284
:1010280033827282286807F037FF3C492A68C8F87B
:101038000010C0F30F4C3346A6F814C008465946B2
:10104800FFF7D2FD2868D8F8006007F01BFF22469A
:1010580001463046FFF7D6FD2A4AD8F800601068E6
:101068001A4ADAF800C01168274AD5F800A0D2F861
:1010780000E0029A01969046204E264D019A284B90
:1010880036682D683F68C8F80020194A1961C3E915
:101098000624C3E900C69860C3F824A0C3E90B5727
:1010A800C3F83CE0DC605C611C62C3F828B0C3E9AB
:1010B8000D44C3E910440949C3E91244039A1C6565
:1010C800136081F8009007B0BDE8F08F8009002018
:1010D800480A0020140A002094090020080600206D
:1010E800100A00208C0300203C0100200804002086
:1010F800C4020020680400203C0400208809002065
:1011080074020020440A0020400A0020C404002081
:10111800F00100207C0900203C0A0020180A002069
:10112800BC090020340A002094040020840900200F
:101138009C0200208C090020704700BF084B10B5A6
:10114800262404FB003494F8243003B110BD054B69
:1011580053F8200007F040FEE083208210BD00BF56
:1011680094090020480A0020014B5880704700BFAE
:1011780008060020034B588880B2B0FA80F0400976
:10118800704700BF08060020014B9880704700BFD9
:1011980008060020034B988880B2B0FA80F0400916
:1011A800704700BF0806002030B583B002A90023AD
:1011B80021F8023D4B484C4C05F0F0FF05462068ED
:1011C80006F09EFB494807F00FFF03380F280DD89B
:1011D800DFE800F01F2B30435265080C0C0C0C0C98
:1011E8000C6E7C0E0021414807F08AFE03B030BD2A
:1011F8003C4805F009FF04213C4807F081FE00281F
:10120800F4D00020FFF76AFE394B186806F0D0FECC
:10121800ECE7374B186806F0A3FE1420FFF7A4FF8D
:101228001021324807F06CFEE0E705212F4807F04F
:1012380067FEDBE70020FFF77FFF0020FFF77EFF58
:1012480006212A4807F05CFE2A4B186807F030FE92
:10125800294B1868FFF70EFDC8E7274B1868FFF7FA
:1012680009FD0020FFF76AFF002DBFD12A46202183
:101278001E4807F02BFEB9E71D4B186806F0E0FE84
:101288000020FFF72BFE206806F030FA4FF4487074
:10129800FFF77AFF0821154807F032FEA6E7FFF7A7
:1012A80079FF0028A2D00921104807F029FE9DE700
:1012B800FFF760FF002899D00D4B0021186806F051
:1012C800C5FC1121094807F01BFE8FE7084B0121D7
:1012D800186806F0BBFC002888D01221034807F0E4
:1012E8000FFE83E7C4020020400A0020340A0020D1
:1012F80080090020480A00208C09002038B5104CCD
:101308002578012D00D038BDE3889BB2A3B1E388CE
:10131800013B9BB2E38063889BB243B9A3889BB22D
:10132800002BF0D0A388013B9BB2A38038BD638813
:10133800013B9BB26380F1E7FFF736FFE580EAE700
:10134800080600202DE9F0413448354F354C86B069
:1013580005F004FF344B186807F0D2FC054607F087
:1013680075FC03A90646386806F058FB00F0BAFF7A
:101378000398FFF71DFD31460490FFF757FD2B4BEF
:10138800B4F91010019000B2091A186806F054FA5E
:10139800BDF90620264BB4F912108046891A186840
:1013A80006F04AFA234BADF808801B68ADF80A002E
:1013B8000299184605F034FD034628460FFA83F8CB
:1013C8001D14029307F04AFC31460298FFF768FDA6
:1013D800034601463868059306F022FB074600F0ED
:1013E800C5FF03982060049860600198E060012FB1
:1013F8000598A4F8168025832684C4F81A0003D01B
:10140800002006B0BDE8F081394600220A4807F0FE
:101418005DFD002006B0BDE8F08100BFC4020020D9
:101428008009002094090020480A0020880900202B
:10143800440A0020100A0020340A0020F8B5204B86
:10144800204F054653F8200006F0A2F9044657F845
:10145800250006F025FC04F00E040443A4B235B3BD
:10146800194E05EB450306EB4306E24392B22146CB
:10147800304607F02BFD304607F0B6FD0A2808D0A5
:101488000B2805D157F82500BDE8F84006F0DCBB6D
:10149800F8BD57F8250006F0D7FB2846FFF71EFDD4
:1014A8000A4B53F82500BDE8F84006F01FB9084B71
:1014B800186807F08DFB00F00E000443D0E700BF6A
:1014C8007C09002080090020340A0020400A0020FE
:1014D800140A002008B5064B1B78012B00D008BD64
:1014E8000020FFF7ABFFBDE8084000F019BE00BFC1
:1014F8000806002008B5064B1B7803B908BDFFF79E
:10150800FDFEFFF7E7FFBDE8084001F021BB00BF83
:101518000806002008B5054B186806F091FD002262
:1015280080210348BDE8084007F0D0BC80090020AE
:10153800340A0020F0B4584A584CD461022794B0B9
:10154800D761D461D36913935548139BD06104269E
:10155800D661D061D36912934FF480414FF4A03320
:10156800129DD361D161D361D36911934FF0904338
:101578004FF001110125DDF844C0D961DD61D96161
:10158800D3F81CC0CDF840C0DDF840C0D161D561AA
:10159800D161D1690F910F9D4249D9618025DD61E3
:1015A800D961D3F81CC0CDF838C0DDF838C0DC618B
:1015B800DF61DC61DC690D940D9F3B4CDC61082721
:1015C800DF61DC61DC690C940C9CD861DE61D86158
:1015D800D8690B900B9C3548D8614024DC61D861F0
:1015E800DE690A960A9F324EDE612027DF61DE61DE
:1015F800DE690996099ED061D461D061D0690890EE
:101608000898D161D561D161D169079107982949B5
:10161800D1614FF48070D061D161D4690694069C81
:10162800D961D861D961D96905914FF400704FF437
:101638008131059CD961D861D961D96904914FF488
:1016480080604FF48231049CD961D861D961D9692D
:1016580003914FF480504FF48831039CD961D861CD
:10166800D961DB6902934FF400414FF4C03302980B
:10167800D361D161D361D2690F4B01924FF400510C
:101688004FF490320198DA61D961DA61DB6900932D
:10169800009B14B0F0BC7047000400480200010031
:1016A8000400010080000100080001004000010062
:1016B8002000010000010100000800482DE9F04366
:1016C8008DB0002716464A090C4699468DF80970D0
:1016D800054623D1122914D8DFE811F01600580066
:1016E800EA007E01130013008801B501CA01FD015B
:1016F8001F02300247026402130013001300130094
:10170800160001238DF80E30D5E90C0401230DF1E4
:101718000E02FF21A0470DB0BDE8F08302F1FF38AB
:101728004246394601F070FA00B3D5F8C40004F017
:101738001F0418B14246394601F066FA122C00F22D
:10174800E982DFE814F0C5012300B5004901E7028A
:10175800E702530180019501C801EA01FB01120269
:101768002F02E702E702E702E702C5010B239DF813
:1017780009008DF80E300028C6D000231A46D5E996
:101788000C04F021A0470DB0BDE8F08331780523A3
:101798008DF80E30882900F2C382DFE811F05A0272
:1017A800C102C1025302C102490249024902490267
:1017B80049024902490249024902490249023902D9
:1017C8003902C102C10249024902490249024902D9
:1017D800C102C102C1022F022502C102C102C10217
:1017E800C102C102C102C102C102C102C102C102D9
:1017F800C102C102C102C102C102C102C102C102C9
:10180800C102C102C102C102C102C102C102C102B8
:10181800C102C102C102C102C102C102C102C102A8
:101828004902C102C102C102C102390239023902A8
:10183800C102C102C102C102C102C1024902C10200
:10184800C102C10249024902490249024902490248
:101858004902C1023902C102C102C102C102C10268
:101868004902C102C10249024902C102C102C102C0
:10187800C102C102C102C102C102C102C102C10248
:10188800C102C102C10253023902390239023902C6
:101898003902C102C102C10239023902C102C102C0
:1018A800C102C102C102C102C10249024902490280
:1018B800317803238DF80E308A2900F20981DFE898
:1018C80011F017028101170217028101FC01FC01C6
:1018D800FC01FC01FC01FC01FC01FC01FC01FC0118
:1018E800FC01FC01FC01FC01FC01FC01FC01FC0108
:1018F800FC01FC01FC01FC01FC01EB01D7018101A9
:10190800FC01FC01FC01170207010701070107019F
:10191800070107010701070107010701070107017F
:10192800070107010701070107010701070107016F
:10193800070107010701070107010701070107015F
:1019480007010701FC0107010701070107018101E0
:1019580081018101FC01FC01FC01FC0117028101EC
:10196800FC01FC01FC01FC01FC01FC01FC01FC0187
:10197800FC01FC01FC01170281010701FC01FC01CB
:10198800FC01FC01FC0107010701FC01FC01170235
:101998001702810181018101810181011702FC0186
:1019A800FC0181010701FC01FC0117028101810191
:1019B800810181018101810181018101810181010F
:1019C8008101170207011702810181018101FC01D0
:1019D800FC01FC0107010E02072331788DF80E3057
:1019E800284601F0D7F98DF80900C4E604AC0021B7
:1019F8002046202207F0A6FCD5F8C0600DF11200A1
:101A0800711E002305E001331D2B00F8012F00F0A3
:101A18008D8111F8012F092AF5D15A1DD91D0933D5
:101A2800B25C8DF81020725C8DF81120F35C8DF893
:101A3800123022462023D5E90C04F021A0470123C7
:101A48008DF8093099E6777833787079B4783279F7
:101A5800F17803EB072303EB044302EB002203EBCB
:101A6800016192B2284601F0D3F98DF8090082E6A7
:101A78000DF10E03317800930DF10A0203AB2846ED
:101A880001F0E2F9BDF90C30BDF80A00BDF90E10FD
:101A98008DF8141003EB43035B0000221C1263F360
:101AA800070264F30F221C1464F317421B1663F336
:101AB8001F620912030A04928DF815108DF816009A
:101AC8008DF81730D5E90C04082304AAF021A047A3
:101AD8009DF809004FE6B1787378F2783479707917
:101AE800377A03EB012303EB0243924AB17903EB04
:101AF800046382FB0342F47900EB0120A2EBE37359
:101B080000B204EB0722317800901BB292B228464B
:101B180001F0B8F98DF809002DE6F0787378B278FD
:101B2800317802EB002201EB032112B209B22846F8
:101B380001F0C2F901238DF809301EE67E4C0496A7
:101B48000C23214604A88DF814908DF80E3001F06E
:101B5800C1F98DF8090000283FF4D6ADD5E90C0687
:101B680023792268F021B047D5E5D5F8C02004AC28
:101B7800013A23460CAE04E003F8011B9E423FF4F1
:101B880058AF12F8011F181BC0B20029F4D11F2842
:101B98003FF64FAFC0F11F02D2B20132204407F026
:101BA800D1FB46E7707932797378317802EB0022FD
:101BB80001EB032192B209B2284601F03BF98DF8F6
:101BC8000900D8E50DF10902284601F097F99DF8BA
:101BD80009300490002B3FF497ADD5E90C04042399
:101BE80004AAF021A04796E57278D5F8C40001212F
:101BF80001F07AF901238DF80930BEE57278D5F83D
:101C0800C400002101F070F901238DF80930B4E512
:101C1800B4787378F078327903EB042303EB00434C
:101C280003EB0262284600F0EFFF8DF80900A2E5F9
:101C3800B2787378284603EB022200F0E5FF8DF8AE
:101C4800090098E57278284600F0DEFF8DF8090053
:101C580091E57478D5F8C4002246002100F0D4FF3D
:101C680022460021284600F0CFFF8DF8090082E5C2
:101C7800D5F8C40000283FF42BAF012101F038F952
:101C88000CAA012302F8200D6C6B286BF021A047E9
:101C980001238DF8093070E5D5F8C40000283FF419
:101CA80017AF002101F024F90CAA6C6B02F8200D83
:101CB8000123286BF021A0472DE50DF109022846E4
:101CC80001F01CF99DF809300490002B3FF41CAD7D
:101CD800D5E90C04022304AAF021A0471BE56C6B8C
:101CE800164A286B0223F021A0479DF8090042E517
:101CF8000DF10902284601F001F99DF80930049018
:101D0800002B3FF401ADD5E90C04012304AAF0210E
:101D1800A04700E501239DF809008DF80E302AE55B
:101D280002238DF80E309DF8090024E5262324218E
:101D3800222275E6ABAAAA2A10060020780B0020FA
:101D480010B5C36B0446006B9847802384F8C830ED
:101D5800206BA36BBDE81040184700BFF0B583B0F7
:101D680004461E46099B01630B4FC4F8C4300A9B06
:101D7800C4F8C0300846154621460097074B089F0F
:101D8800074A05F09FF8C4E90D56E7632046FFF7B8
:101D9800D7FF03B0F0BD00BFAD1D0008C516000891
:101DA800B51D000808B5FFF7CBFF08BD08B5FFF75C
:101DB800C7FF08BD30B583B003F064F90B4B0C4D79
:101DC8000C4CA3FB0030C00902F05EFA29462046FD
:101DD800FFF7C2F8FFF7AEFB074B009322462B46EE
:101DE8000121064800F04AFE03B030BDD34D621011
:101DF800500A00204C0A0020A4940008D8050020AE
:101E080063490A68F0B4002A00F0818004791379E4
:101E18009C421FD04B68002B00F08C801D79A54296
:101E28004FF0FF027AD08D68002D00F0A2802B7948
:101E3800A34279D0CB68002B00F096801D79A5428B
:101E480000F08480032A88BFFF2240F29780104662
:101E5800F0BC7047126803689342DBD100229C688B
:101E68004C4D41F82200002145F83210E50722D4F4
:101E78005968042421F0040159601C605968202421
:101E880021F0200159601C60996821F0404121F03F
:101E98003F0141F00041996099680029FCDB19680D
:101EA800CC0708D43C4C9968214041F00101996065
:101EB8001968C907F7D5394E1C6B02EB4201490076
:101EC80075180027775424F00F046A712A711C636F
:101ED80004790121092C4FEA846601FA04F104EB24
:101EE80044053AD846EA05552943CC0D04F00404C4
:101EF80014338568E058C1F3045107268E408D409D
:101F080020EA06012943E1501046F0BC70474B68AF
:101F1800002B35D004791D79A54284D11D6803684A
:101F2800AB4280D101229AE72D6803689D4281D196
:101F3800022294E78D680122002D7FF478AFCB68E8
:101F4800E3B104791D79A5427FF47CAF1C6803686E
:101F58009C427FF477AF032281E741F0007131435F
:101F68001E3D41EA0551C0E7042A7FF66BAF0368BE
:101F7800F1E7042A8CBF02220022E0E703686EE73B
:101F88008D6815B11A46047951E72A46D7E700BF8C
:101F9800940A0020700A0020C0FFFF7F580A002022
:101FA800F0B4440022185A4B13F81220002A39D1F1
:101FB8001978002978D19979042200297AD0DE7A13
:101FC800864200F297801A7B002A00F096805E7C99
:101FD800B04205D39A7C002A40F09380022270E038
:101FE8000222114601EB4105211803EB410106EBE2
:101FF80046074E71474E0A7103EB450503EB470749
:10200800327868713871211849005D1802EB420274
:1020180003EB420200276F7052780125AA425D54F3
:1020280018BF30703C4A92F87820002A32D13B4AD7
:1020380052F8202015791168092D4FF001024FEA56
:10204800856702FA05F205EB450629D942F00072C8
:102058003A431E3E42EA06520D6B120D02F4F86234
:1020680025F4F8652A430A630A6C8A6822F000425C
:1020780022F03F0242F004028A600A685207FCD547
:10208800221803EB4202096C5180224D0221517043
:1020980052792A70204403EB4003F0BC58887047FB
:1020A80047EA06563243D7E75E79B04299D3997921
:1020B800002984D1197B002989D1997C09BB042A7C
:1020C80014D002EB420503EB4505211895F805C02D
:1020D800104E0CEB4C0703EB410103EB47070A7169
:1020E80081F805C03871687132788CE7094E02466C
:1020F800307088E70122114674E79A7C0AB90122F8
:10210800DFE7DE7D86424FF00302DAD969E700BFD8
:10211800580A0020540A00208C030020940A00204A
:10212800F0B5684C2378012B00D0F0BD664A674BA8
:10213800107841000A1813F81220002A4FD11D7890
:10214800B5B15E79B04214D2154605EB45070D18B6
:1021580003EB450506EB460C6E7103EB470703EBF3
:102168004C0C5B4E2A71787132788CF8040025E0AB
:1021780004229D79002D00F08580DE7AB042C0F0FF
:1021880093801A7B002A40F092809A7C002A7DD1A5
:10219800012202EB420703EB47070D1897F805E009
:1021A8004B4E03EB45050EEB4E0C03EB4C0C2A7122
:1021B800327885F805E08CF8040078710D186D0008
:1021C8005F1902EB420203EB42024FF0000C87F862
:1021D80001C052780127BA425F5518BF30703D4A96
:1021E80092F878207ABB3C4A52F820201679156874
:1021F800092E4FF001024FEA866C02FA06F206EB4E
:10220800460737D84CEA07573A432E6B120D02F4AB
:10221800F86226F4F86632432A632A6CAA6822F028
:10222800004222F03F0242F00402AA602A685207E4
:10223800FCD50A1803EB42022D6C5580244E02256A
:102248005570527932700144244A254F52F8305063
:1022580003EB41030226598839802670002D3FF48C
:1022680064AF02EBC0020023237052682B46BDE81E
:10227800F040184742F0007242EA0C021E3F42EA60
:102288000752C2E71D7B95B99D7C35B1DE7DB04212
:102298004FF00302BFF47DAF56E7042A7FF479AF0D
:1022A8000B4E0246307089E7012215464DE75E7CE9
:1022B800B04204D39A7C002AE8D1022269E70222BC
:1022C80042E700BF900A0020550A0020580A002063
:1022D800540A00208C030020940A0020700A002071
:1022E800A40A0020F0B41E4B1E491A785400A31803
:1022F80011F8133073B31C4B4FF0A04053F8223041
:10230800042505601D791868092D4FF001034FEA6F
:10231800856703FA05F305EB45061DD943F00073FD
:102328003B431E3E43EA0653056B1B0D03F4F8635B
:1023380025F4F8652B430363036C8368224423F078
:10234800004301EB420123F03F0343F00403012261
:1023580083604A70F0BC704747EA06563343E3E7A8
:10236800540A0020580A0020940A002030B40C4C6B
:102378000C4B20784200111803EB41014D78012DD8
:1023880007D1094D55F820502D682D6C4D80022538
:102398004D70024403EB42035B79237030BC7047F5
:1023A800540A0020580A0020940A00200F4B00B558
:1023B8001A6E42F001021A661A6E83B002F0010228
:1023C8000092009A9A6D42F080529A659B6D03F0D4
:1023D800805301930420019B01F000FF044A936895
:1023E80023F48043936003B05DF804FB00100240BF
:1023F8000070004010B502688AB00023B2F1A04F07
:10240800CDE90533CDE9073309931FD0314B9A4203
:1024180001D00AB010BD304A13680133012B136094
:102428004DD02E4BDA6C42F00102DA64DB6C03F01B
:10243800010304934022032305A94FF09040049C14
:10244800CDE9052302F03EF80AB010BD224A136810
:102458000133012B136027D0204BDA6C42F00102C4
:10246800DA64DA6C02F001020192019ADA6C42F045
:102478000202DA64DB6C03F00203029303240523EF
:1024880005A94FF09040029ACDE9053402F01AF8F8
:1024980044F20202002305A911480793CDE9052457
:1024A80002F010F80AB010BD0C4BDA6C42F400527E
:1024B800DA64DB6C03F400530093009BCCE7074B12
:1024C800DA6C42F40052DA64DB6C03F400530393D1
:1024D800039BA6E7000100501806002000100240E8
:1024E8000004004810B502682C4988B000238A42CD
:1024F800CDE90333CDE90533079307D0284B9A423A
:1025080033D0284B9A4219D008B010BD03F180434C
:1025180003F5043303A9DA6C42F00102DA64DB6CD8
:1025280003F001030093022203234FF09040009C24
:10253800CDE9032301F0C6FF08B010BD03F58633CB
:1025480003F5FA73DA6C184842F00202DA64DB6CBD
:1025580003F0020302930122032303A9029CCDE99D
:10256800032301F0AFFF08B010BD03F5863303F570
:10257800FE73DA6C42F00102DA64DB6C03F00103EB
:1025880001938022032303A94FF09040019CCDE9D9
:10259800032301F097FF08B010BD00BF00020140FF
:1025A800040201400C0201400004004802680A4B82
:1025B8009A4200D07047D3F8482442F00802C3F882
:1025C800482403F5806382B09B6C03F008030193F1
:1025D800019B02B0704700BF000C024010B50168B3
:1025E800164A88B000239142CDE90333CDE905337B
:1025F800079301D008B010BD03F1804303F50433FD
:1026080003A9DA6C42F48032DA64DA6C02F48032BC
:102618000192019ADA6C42F00102DA64DB6C03F091
:1026280001030293102203234FF09040029CCDE94E
:10263800032301F047FF08B010BD00BF0008005099
:1026480010B502682B4988B000238A42CDE90333CC
:10265800CDE90533079307D0274B9A4232D0274B51
:102668009A4219D008B010BD03F1804303F5043332
:1026780003A9DA6C42F00102DA64DB6C03F00103AF
:1026880000930E2203234FF09040009CCDE90323D2
:1026980001F018FF08B010BD03F58633F833DA6C83
:1026A800174842F00202DA64DB6C03F0020302937B
:1026B8000722032303A9029CCDE9032301F002FFAB
:1026C80008B010BD03F58633FC33DA6C42F0010222
:1026D800DA64DB6C03F001030193E022032303A90E
:1026E8004FF09040019CCDE9032301F0EBFE08B0C8
:1026F80010BD00BF0003014004030140080301406E
:102708000004004810B502681F4988B000238A42B7
:10271800CDE90333CDE90533079304D01B4B9A4227
:1027280010D008B010BD03F1804303F504331A6ECE
:1027380042F400621A661B6E03F400630093009B68
:1027480008B010BD03F5023311489A6D42F0040237
:102758009A659A6D02F004020192019ADA6C42F0CD
:102768000202DA64DB6C03F0020302934FF4E072B6
:10277800022303A9029CCDE90323CDE9063301F026
:10278800A1FE08B010BD00BF002C014000080040A9
:102798000004004830B50168284A89B000239142F6
:1027A800CDE90333CDE90533079301D009B030BD36
:1027B80003F1804303F504330224DA6C204842F025
:1027C8000402DA64DA6C02F004020092009ADA6C0D
:1027D80042F00202DA64DA6C02F002020192019A13
:1027E800DA6C42F00102DA64DB6C03F00103029355
:1027F80004254FF4005303A9029A0795CDE9033441
:10280800CDE9054401F05EFE4FF4004303A90D48ED
:102818000393CDE90444CDE9064501F053FE4FF496
:10282800B852062303A94FF09040CDE9044406941A
:102838000392079301F046FE09B030BD002C014019
:10284800000800480004004830B50168164A89B0FD
:1028580000239142CDE90333CDE90533079301D035
:1028680009B030BD03F1804303F504330F489A6D76
:1028780042F400329A659A6D02F400320192019A8C
:10288800DA6C42F00202DA64DB6C03F002030293B2
:102898000222072303A91824029D0793CDE90342C6
:1028A80001F010FE09B030BD0044004000040048AB
:1028B80008B54FF0A04340221A60FEF743FDBDE87B
:1028C800084000F061B900BF034B04486FF00102F3
:1028D8001A6105F085BF00BF002C01408C03002061
:1028E80008B50C4B1A6911060DD40A4B1A69D205A2
:1028F80005D56FF480721A61074805F0BDFFBDE881
:102908000840FEF7FBBC6FF080021A61024805F030
:10291800D3FFEAE7002C01408C03002010B50C4CD3
:10292800E36A1A69D1070BD41A69920700D410BD5B
:102938006FF002021A610648BDE8104004F078BC46
:102948006FF001021A61204604F01EFEE36AEBE70D
:10295800C402002010B5194CD4F82031DA69910668
:1029680017D4DA6912060ED4DB691B0700D410BD30
:10297800124806F085FCD4F8203108221A62BDE816
:10298800104000F011B90D4806F044FBD4F820318E
:10299800EAE7596A2046C9B206F010FC0388012B01
:1029A80007D0022B02D0D4F82031DAE700F0FCF887
:1029B800F9E700F0FFF8D4F82031D2E70000002052
:1029C80070B5FEF7A7FD1A4C08262546D4F8203125
:1029D800DA6912071DD4DA6910060FD4DA6992068B
:1029E800F6D5596A2846C9B206F0E8FB0388012BD8
:1029F8001AD0022BEAD100F0D7F8E7E7284606F00C
:102A080009FBD4F82031DA699106EAD4DA691207A9
:102A1800E1D5284606F034FCD4F820311E6200F0D7
:102A2800C3F8D4F82031D6E700F0C4F8CEE700BFE9
:102A38000000002010B50A4C2378022B06D0013381
:102A4800DBB22370BDE81040FEF754BD00F0B6FCC1
:102A580001F036FC01232370BDE81040FEF74ABDA3
:102A6800DC050020044B5A69520500D470474FF426
:102A780080625A6100F0A4B8000401402DE9F04FCB
:102A880087B02B4D109C05942C4682460F469046E5
:102A980099460FCCDFF8ACE0264EDFF8ACB0C6F8AC
:102AA80000E0F446ACE80F000FCCACE80F0094E867
:102AB8000F00CDF800A08CE80F0070464B46424648
:102AC800394600F089F8306800F006FA306831229B
:102AD800002100F009FA30682422012100F004FAEC
:102AE8000FCDDFF868C0C6F804C0ACE80F000FCD02
:102AF800ACE80F0094E80F008CE80F00584606F089
:102B080087FAD6E900200C4B059C0294CDE90032E7
:102B180059460A4B0A4AFFF721F97068CDF840A0D8
:102B28004B464246394607B0BDE8F04F00F054B86E
:102B3800440200201C060020A59200087D90000891
:102B4800A19000080802002000000020A80A002028
:102B58000B4B1A8992B21AB11A89013A92B21A81A8
:102B68005A89012A03D95A89013A92B25A81054AE7
:102B78001388012B03D91388013B9BB2138070473C
:102B88001C060020DE05002038B5064C05462068E6
:102B980000F036F8A84200D038BD2068BDE83840BB
:102BA80000F09EB91C060020014B00225A81704794
:102BB8001C060020014B4F225A8170471C0600203A
:102BC80008B5FEF70BF818B1BDE80840FEF700B8E5
:102BD800BDE80840FDF7F6BF30B4029C84620025CA
:102BE80080F82C500177C0E9082330BC704700BF3B
:102BF800037F8B4286BF80F82C100120002070478D
:102C080090F82C00704700BF30B5D0E9085490F810
:102C18002C3085B055F8235054F823305B2900F246
:102C2800A080DFE801F03B9E9E3F9E464C525866CE
:102C38006C7278868C929E9E9E9E9E9E9E9E9E9E66
:102C48009E9E9E9E9E9E9E9E9E9E9E9E9E9E9E9E9C
:102C58009E9E9E9E9E9E9E9E9E9E9E9E9E9E9E9E8C
:102C68009E9E9E9E9E9E9E989E9E9E9E9E9E9E9E82
:102C78009E9E9E9E9E9E9E9E9E9E9E9E9E9E9E9E6C
:102C88009E2E434981FB0231A1EBE271284609B22D
:102C98000022FDF7B7FF012005B030BDD1B2FFF724
:102CA800A7FFF9E712F0FF045DD0012C65D00120E1
:102CB800F2E7186811B204F0A7FD0120ECE71868E4
:102CC80011B204F0A3FD0120E6E7186811B204F080
:102CD800ADFD0120E0E728460192FEF73BF8019A96
:102CE8000390ADF80C2028460399FDF79FFF0120BB
:102CF800D2E7586811B204F087FD0120CCE7586884
:102D080011B204F083FD0120C6E7586811B204F03F
:102D18008DFD0120C0E728460192FEF71BF8019AB5
:102D28000390ADF80E2028460399FDF77FFF012098
:102D3800B2E7986811B204F067FD0120ACE7986823
:102D480011B204F063FD0120A6E7986811B204F0FF
:102D58006DFD0120A0E7284611B2FEF71BF80120FF
:102D68009AE7002098E72846FEF710F82246014621
:102D78002846FDF74FFF01208EE72846FDF7CEFFD6
:102D8800002201462846FDF73DFF204684E700BFA4
:102D9800ABAAAA2A10B5036A90F82C20013953F877
:102DA80022400D292CD8DFE801F01712070C0C0E71
:102DB8001C26212B2B2B2B122046FDF795FF0628CE
:102DC80020D0012010BD2046FDF78EFF20B12046FF
:102DD800FDF744FF012010BD2046FDF735FF012017
:102DE80010BD2046FDF73EFF012010BD2046FDF72F
:102DF800D5FF012010BD2046FDF738FF012010BD8A
:102E0800002010BD2046FDF77DFF012010BD00BF4A
:102E180010B5074B90F82C40006A83FB01C3A3EB65
:102E2800E17150F8240009B2FDF7ECFE012010BD55
:102E3800ABAAAA2A10B5036A90F82C4053F82400CC
:102E4800FDF7E8FE012010BDF8B590F82C40406A67
:102E580050F82400446994B120461E4617460D4692
:102E680006F032FA29463880204606F033FA294619
:102E78003080204606F036FA069B0124188020464A
:102E8800F8BD00BFF8B51F4690F82C40436ABDF95D
:102E9800186053F824305C690D46204606F002FAA3
:102EA8003A462946204606F003FA20463246294685
:102EB80006F004FA0120F8BD82B0036AADF80410E8
:102EC80090F82C10ADF8062053F82100019902B0B3
:102ED800FDF7ACBE00207047436903B1184770473F
:102EE800836903B118477047436803B118477047AF
:102EF800836803B118478920704700BF70B5D0E9CF
:102F0800084590F82C308CB055F8235054F82360BD
:102F1800002A00F0898001241470812900F2F381CD
:102F2800DFE811F0B901B301AF01AB0132012E01A5
:102F38002A01260105013901ED01E901FA001A010A
:102F480022011E01F101F101F101F101F101F1018B
:102F5800F101F101F101DB01D701D301CF01CB016F
:102F6800C40184017F01F1010F010A01E401DF01BD
:102F7800150184017F010501FA00980193018E0172
:102F8800890151013D01F101F101F101F101F10165
:102F9800F101F101F101F101F101F101F101790111
:102FA80073016C016501FA00F101F101F101F10110
:102FB800F101F101F101F101F101F101F101F10179
:102FC800F101F101F101F101F101F101F101F10169
:102FD800F101F101F101F101F1019D01F101F101AD
:102FE800F101F101F101F101F101F101F101F10149
:102FF800F101F101F101F101F101F101F101F10139
:10300800C001BC01A901F10102010201F101F101B4
:10301800F101F101F101F101F101F101F101F10118
:10302800F101F101F101000173297BD8DFE811F00A
:1030380033012D0129012501AC00A800A400A0003E
:103048007F00B30067016301740094009C0098003E
:103058007A007A007A007A007A007A007A007A0098
:103068007A00550151014D01490145013E01FE001B
:10307800F9007A00890084005E0159018F00FE0082
:10308800F9007F00740012010D0108010301CB0053
:10309800B7007A007A007A007A007A007A007A001B
:1030A8007A007A007A007A007A00F300ED00E600F0
:1030B800DF0074007A007A007A007A007A007A00D9
:1030C8007A007A007A007A007A007A007A007A0028
:1030D8007A007A007A007A007A007A007A007A0018
:1030E8007A007A007A0017017A007A007A007A006A
:1030F8007A007A007A007A007A007A007A007A00F8
:103108007A007A007A007A007A007A003A01360169
:1031180023017A007C007C003046FDF71BFE00147A
:103128000CB070BD0020FBE742F21F70F8E7304694
:10313800FDF710FE00B2F3E73046FDF7F3FD00B2ED
:10314800EEE768690028EDD006F0D4F8E8E73046E5
:10315800FDF7F0FD0014E3E7A86804F059FBDFE78A
:10316800A86804F065FBDBE7A86804F055FBD7E71F
:10317800286804F05DFBD3E7286804F04DFBCFE72F
:10318800286804F045FBCBE73046FDF7C7FD00EBA8
:1031980040004000C4E7686804F03AFBC0E7826A70
:1031A80052F823301A0F013AC3F30363012A03F1DB
:1031B800FF3340F2AB80012BB4D8E8690028B1D0C6
:1031C80005F080FDACE7826A52F823301A0F013A05
:1031D800C3F30363012A03F1FF3340F29C80012B00
:1031E800A0D8E86900289DD005F030FD98E7686A06
:1031F80005F04EFE00EB4000400091E7686A05F0DC
:1032080045FE00EB400040008AE70369002B89D0A7
:103218000121984784E70369002B83D00021984750
:103228007EE73046FDF78EFD001479E73046FDF75E
:1032380089FD00B274E73046FDF79EFD00146FE784
:103248003046FDF799FD00B26AE73046FDF78AFD82
:10325800001465E73046FDF785FD00B260E73046AB
:10326800FDF746FD012830465AD0FDF757FD00EB23
:103278004000400054E72D4852E73046FDF738FD3E
:103288004EE7A86A05F0B0FE4AE7A86A0CB0BDE8A8
:10329800704005F0B7BEFFF7B3FC41E7286804F0BB
:1032A800C3FA3DE7286804F0BDFA39E73046FDF770
:1032B8002DFD00EB4000400032E70121FFF718FE2A
:1032C8002EE70021FFF714FE2AE7E86B04F038FA2E
:1032D80026E7E86A04F07AFA22E7286B03F09AFDF9
:1032E8001EE73046FDF726FD00B219E73046FDF728
:1032F80019FD001414E7686804F09AFA10E7686882
:1033080004F08AFA0CE70020107009E7012BA8697D
:103318003FF654AF51E7012BA8693FF663AF60E76A
:10332800FDF7E8FC00EB40004000F9E67A84A6349B
:10333800054BD3F888204FF0006142F47002C3F8BF
:1033480088209960704700BF00ED00E070B50F4E0F
:1033580033680BB9012070BD0D494FF47A720546E8
:10336800B2FBF3F30868B0FBF3F000F08DFF0446FE
:103378000028EFD10F2DEDD8024629464FF0FF3037
:1033880000F03EFF7560204670BD00BFE4050020D8
:10339800E005002000B5032083B000F01FFF0420E3
:1033A800FFF7D4FF18B1012003B05DF804FB0190CA
:1033B800FEF7FCFF019803B05DF804FB034A0449DB
:1033C800136809680B441360704700BF740B002032
:1033D800E4050020014B1868704700BF740B0020FB
:1033E80038B50446FFF7F6FF631C054602D0044BC8
:1033F8001B681C44FFF7EEFF401BA042FAD338BD00
:10340800E405002070B582B000230193002800F085
:10341800A180C56D0446002D00F091802268936854
:103428009D0005D5936823F0204323F03F03936064
:103438009368D80017D4754B91681B6874489B092A
:1034480021F01041A0FB030321F03F019B0941F04B
:10345800805191600193019B2BB1019B013B01932A
:10346800019B002BF9D19368D9005AD4E36D43F03E
:103478001003E365236E43F001032366936813F09A
:10348800040F4FF00100E36D52D1DB0650D4E36D19
:1034980023F4817343F00203E3659368DE0709D4DC
:1034A8004FF0A0435B499B688968CD0703F001038F
:1034B80040F18380D4E90215E36B2B430B43657F0E
:1034C80094F8241043EA4533012943EA014303D120
:1034D800A16A013943EA4143E16A21B1256B01F44C
:1034E800787129430B43D6684B49656B31400B43D0
:1034F800D360136923F040632B4313619368590722
:103508002BD593686369012B4FD0136B23F00F03FE
:103518001363E36D23F0030343F00103E36502B093
:1035280070BD936813F0040F4FF00000E36DACD04A
:10353800E36D012043F01003E36502B070BDFEF7B0
:1035480059FF22682566936884F858509D007FF5D6
:103558006FAF67E7012002B070BD93681B07D1D435
:10356800D16894F83830267F256921F480415B00C2
:1035780021F0020143EA86330B43D36013693DB35C
:1035880043F480331361D2F8C03023F47F5323F01F
:103598003F032B43C2F8C03094F84030012B23D0AE
:1035A800136923F001031361ACE7116B236A21F05F
:1035B8000F01013B0B431363ABE7002B7FF47AAF9A
:1035C800164965688B6823F47C132B438B6071E77D
:1035D80023F480331361D2F8C03023F47F5323F0EF
:1035E8003F03C2F8C030D7E7D4E91131E66C256D46
:1035F8000B43116943F00103334321F4FF612B436B
:1036080021F004010B4313617CE700BFE0050020B3
:10361800632D3E05000100500740F0FF00030050F5
:103628002DE9F041034682B093F858200020012A82
:10363800019000F003811C68A2680120560783F8F6
:1036480058004FD4D1E90020860904F1300506F06E
:103658000C0600F01F0077594FF01F0C0CFA00FC05
:10366800C2F3846227EA0C0782403A437251A26887
:10367800550749D5A2680A68A068C00713D4CE6860
:10368800C148D4F8B050DFF828C306F01807F8404E
:10369800C2F31207104025EA070528436645C4F817
:1036A800B00000F08B80B9490A422BD0B84DB94917
:1036B800A8688A4200F0E0761ED0B7498A421BD03B
:1036C800B6498A4240F0BE8010F080701AD1B44AE0
:1036D800944217D0AA6822F0E072164346F080762A
:1036E800AE6003E0DA6D42F02002DA65002283F86A
:1036F800582002B0BDE8F081020203D4B4F1A04F13
:1037080000F0CB800020F1E7A5680A6815F00805ED
:10371800B2D18E68C2F3045E0720D20D00FA0EF013
:10372800B6F1004F02F004026FEA000004F1140C35
:1037380000F01A8152F80C7006FA0EF6384006436B
:1037480042F80C60626922F000426261D1F810C050
:10375800E7680A68BCF1040F04F1600000F0BB8060
:103768004E6950F82C80DFF84CE2C7F3C1077F00A0
:1037780002F0F84242F00042BE40164308EA0E0E3C
:1037880046EA0E0640F82C600F698E6950F827202B
:1037980091F81CC022F08072324340F827200E694D
:1037A80050F82620BCF1010F22F0007208BF4FF03C
:1037B8000075154340F826500A685DE7002F55D07C
:1037C80092FAA2F0B0FA80F0013000F01F00092848
:1037D80000F2F28092FAA2F6B6FA86F692FAA2F00F
:1037E800B0FA80F001300136012500F01F00B6065E
:1037F80005FA00F006F0F846064392FAA2F5B5FA83
:1038080085F5013505F01F0505EB4500000530433A
:103818004FEAD05C0CF0040C04F11407C0F3045018
:103828005CF807508E680722824025EA020506FAEE
:1038380000F028434CF807000A6834E7022002B079
:10384800BDE8F08157498A427FF45CAF10F48000EC
:103858007FF458AF524A94423FF454AFAA6822F01A
:10386800E072324342F48002AA603FE7920E0132CE
:1038780002F01F050126920602F0F842AE40092D1B
:1038880046EA020605EB4500C0D9A0F11E02120562
:1038980042F0007242EA0600BAE73D48424A8168AF
:1038A800424C21F0E0710E4346F40006866012682F
:1038B8009209A4FB0212920902EB420292000192C1
:1038C800019A002A3FF41EAF019A013A0192019A27
:1038D800002AF9D116E7256E256EC2F31207C5F343
:1038E8008465002F4AD1C2F38466B54206D1226EA0
:1038F80022F0004222660A68C2F312074568466849
:10390800C6F38466002F79D1C2F38465AE4240F0D5
:103918009580426822F0004242600A68856886689D
:10392800C2F31205C6F38466002D71D1C2F3846513
:10393800AE4200F10C077CD1826822F0004282601E
:103948000A6838683868C2F31205C0F38460002D2D
:103958006AD1C2F3846585427FF48EAE3A6822F05C
:1039680000423A600A6887E652F80C60304042F834
:103978000C00626942F000426261E7E692FAA2F640
:10398800B6FA86F6B1E700BFFFFF0700000008801F
:1039980000030050000021C31000C090000052C76F
:1039A80000010050000084CBE0050020632D3E0597
:1039B80000007F4000F0FF0392FAA2F6B6FA86F6FE
:1039C80092FAA2F0B0FA80F001300136012500F039
:1039D8001F00B60605FA00F006F0F846064392FA0C
:1039E800A2F5B5FA85F5013505F01F0505EB450586
:1039F800A5F11E02120542F000724BE792FAA2F5F9
:103A0800B5FA85F5AE4284D085688668C6F38466C3
:103A180092FAA2F5B5FA85F5B54200F10C078BD0FC
:103A2800C568C068C0F3846092FAA2F5B5FA85F556
:103A380091E7C668C068C0F384608CE786688668CA
:103A4800C6F3846674E700BF2DE9F04390F8583058
:103A580083B00022012B019200F05F8143690122AB
:103A6800044680F85820002B72D00B6A93426FD01E
:103A7800826E002A40F02A81886A5A1E002800F0C7
:103A88002C8200F07C00CB6A10431843D1E9003542
:103A9800A26605F01F05C3F38462AA40104322689A
:103AA80060669068000710D491F8260091F82550B8
:103AB8004005002D40F0FF80D56891F8246025F47A
:103AC800401540EA06502843D060906810F0040082
:103AD80057D0906800209568EF0714D4CF68CA4D76
:103AE800D2F8B060DFF84CE307F0180C25FA0CF5B3
:103AF800C3F3120C1D4026EA0C0635437745C2F87D
:103B0800B05000F00E81C1490B421BD0C04DC14ED0
:103B1800A968B34201F0E07700F0A780BE4EB34237
:103B280000F0A380BD4EB34240F05281CE0109D4CB
:103B3800BB4B9A4206D0AB6823F0E0731F4347F0B3
:103B48008077AF60002384F8583003B0BDE8F08375
:103B5800D1E9003009282268A3D1886A5D0C05F4F0
:103B6800785520B1CE6A00F07C0030430543D06C14
:103B7800AC4E30402843D064906865660007A4D4F2
:103B880092E7956815F00805A5D18E6A91F8250089
:103B9800002E40F0B5800128D0680CBF40F00070BE
:103BA80020F00070D060002091F83060012E00F005
:103BB8004581166926F002061661C3F304588F681A
:103BC800DB0D072603F0040E02F1140C06FA08F6C2
:103BD800B7F1004F6FEA06065EF80C3000F00B8173
:103BE8001E4007FA08F737434EF80C70536923F064
:103BF80000435361D1F810E0D7680B68BEF1040F99
:103C080002F1600600F02681C7F3C10C4F6956F82F
:103C18002E90DFF824824FEA4C0C03F0F84343F06F
:103C2800004307FA0CF71F4309EA080847EA0807A0
:103C380046F82E70D1F810C08F6956F82C3091F8DC
:103C48001CE023F080733B4346F82C300F6956F88C
:103C58002730BEF1010F23F0007308BF4FF0007545
:103C68001D4346F827500B6835E70B023FF56AAF4E
:103C7800B2F1A04F7FF466AFD2F808336A4923F057
:103C8800E0731F4347F40007C2F808730B68674ADC
:103C98009B09A2FB03239B0903EB43039B000193AE
:103CA800019B002B3FF44EAF019B013B0193019B0D
:103CB800002BF9D146E7D56825F440152843D06094
:103CC800906810F004007FF404AF5AE7D1E900309F
:103CD800666E00F01F00C3F3846585403543501EAF
:103CE800C4E91950226800287FF4DBAED06C4D4E31
:103CF80030400543D564906800073FF5E6AED3E64B
:103D0800CE6A002E3FF447AF012800F00881D06842
:103D180020F00070D060284646E7022003B0BDE8D6
:103D2800F083BCF1000F2BD19B0E013303F01F066B
:103D38009D060123B34005F0F845092E45EA030521
:103D480006EB460342D91E3B1B0543F000732B4389
:103D58004FEAD35C0CF0040C02F11407C3F30453CC
:103D68005CF807608D684FF0070E0EFA03FE26EA2E
:103D78000E0605FA03F333434CF807300B68C2E626
:103D880093FAA3F5B5FA85F5013505F01F05092D58
:103D980000F2A88093FAA3F5B5FA85F593FAA3F68D
:103DA800B6FA86F601360135012706F01F06AD067C
:103DB80007FA06F605F0F845354393FAA3F3B3FA84
:103DC80083F33B4403F01F0303EB43031B05BEE7E8
:103DD800174EB3427FF4B6AE49023FF5B3AE104B6F
:103DE8009A423FF4AFAEAB6823F0E0731F4347F449
:103DF8008007AF60A6E61E404EF80C60536943F09A
:103E080000435361F6E600BFFFFF0700000008808B
:103E180000030050000021C31000C090000052C7EA
:103E28000001005000401004E0050020632D3E050D
:103E3800000084CB00007F4000F0FF038F6B4E6BC7
:103E4800D2F810C03E4346F002062CF4FF773E43FA
:103E58001661B2E6156E156EC3F3120CC5F38465D0
:103E6800BCF1000F3BD093FAA3F7B7FA87F7BD422E
:103E780006D1136E23F0004313660B68C3F3120CCC
:103E880075687768C7F38467BCF1000F4CD1C3F33A
:103E98008465AF4272D1736823F0004373600B6886
:103EA800B568B768C3F31205C7F38467002D45D119
:103EB800C3F38465AF4206F10C0C47D0F768F66887
:103EC800C6F38466B5427FF406AEDCF8003023F012
:103ED8000043CCF800300B68FDE51046D6E5C3F387
:103EE8008467C4E793FAA3F5B5FA85F593FAA3F6C0
:103EF800B6FA86F601360135012706F01F06AD062B
:103F080007FA06F605F0F845354393FAA3F3B3FA32
:103F180083F33B4403F01F0303EB430313E7E66D0E
:103F280046F02006E6653FE693FAA3F5B5FA85F56F
:103F3800AF42B0D0B568B768C7F3846793FAA3F502
:103F4800B5FA85F5BD4206F10C0C12D1B36823F021
:103F58000043B3600B68DCF80050DCF80060C3F382
:103F68001205C6F3846675B193FAA3F5B5FA85F51B
:103F7800A8E7F568F668C6F38466F5E7B768B76832
:103F8800C7F3846796E7C3F384659BE790F85820E6
:103F9800012A47D0F0B504680E680346B4F1A04F73
:103FA8004FF0010083F8580007D0DA6D002142F085
:103FB8002002DA6583F85810F0BD274DAA68520729
:103FC80009D5A268DA6D42F02002DA6501200022E4
:103FD80083F85820F0BDA06810F00400F2D11EB399
:103FE800DFF878E04F68DEF8082093F838C022F44C
:103FF80060423A4342EA4C32CEF80820A268D4071D
:1040080027D4A86810F0010021D1DEF808208C68B8
:1040180022F4716121F00F0146EA04020A43CEF846
:104028000820D4E7022070470C4A916821F46041C7
:104038009160A068A968C90700F0010007D430B9E9
:10404800916821F4716121F00F019160BFE70020B0
:10405800BDE7AA68BBE700BF00010050000300509D
:10406800F0B583B000230193002854D00268136888
:10407800002B04464FDB437F03F0FF01002B7ED06B
:10408800D4E90163D4E903506169176833430B43EA
:10409800166840492B43034331400B4313601368B0
:1040A800180201D53B024ED53B4B9A4262D00433ED
:1040B8009A426AD004339A4215BF6FF080426FF07B
:1040C80000524FF080414FF00051A3699F0725D05F
:1040D800324DA868DE064CBF08431040A8602F4D3B
:1040E800E8689F064CBF08431040E8602B484161D0
:1040F80045689E074CBF0D431540DB0745601DD53D
:10410800264B1A6811431960637F03F0FF008BB1D7
:10411800002003B0F0BD012003B0F0BD1F4B59686B
:104128001140596019680A401A60637F03F0FF0064
:10413800002BEDD10123637703B0F0BD17490B685D
:104148001A400A60F1E7164B16491B689B09A1FB48
:1041580003139B0903EB83039B000193019B002B33
:10416800A2D0019B013B0193019B002BF9D10A4B83
:104178009A429CD16FF400124FF40011A5E7017721
:104188000162FEF7AFF922687AE76FF480024FF414
:1041980080019AE70F7E00FF000201400004014001
:1041A800E0050020632D3E05B0B190F8213010B530
:1041B80003F0FF02044653B1002001236062C4E902
:1041C8000100C4E90300606184F8213010BD80F863
:1041D8002020FEF7EBF9EFE701207047074AD36884
:1041E8004FF6FF010B40000243F0BF6300F4E060AC
:1041F80043F400330343D360704700BF00ED00E091
:10420800184BDB68C3F3022330B4C3F10705042D50
:1042180003F1040428BF0425062C19D9033B4FF0E9
:10422800FF349C4022EA04044FF0FF32AA4021EAFE
:10423800020101FA03F2224312010028D2B20ADB7A
:1042480000F1604000F5614080F8002330BC704701
:1042580000242346E8E7044B00F00F0003441A76D5
:1042680030BC704700ED00E0FCEC00E0002807DB04
:1042780000F01F0101234009024A8B4042F8203018
:10428800704700BF00E100E00138B0F1807F0ED236
:10429800084B10B4084C5860F02084F82300002222
:1042A800072110469A6019605DF8044B7047012099
:1042B800704700BF10E000E000ED00E0704700BF6D
:1042C80008B5FFF7FBFF08BD88B1037910B503F007
:1042D800FF0204463BB10023022101222171184646
:1042E8002361227110BD4271FEF778F9F3E70120CE
:1042F800704700BF4379012B00F0C4802DE9F041DD
:104308008F68144602230122042F0E460546427187
:10431800037179D0036804F01004F269012A69D0A6
:10432800D6E905C0DA6B0721A14022F44048C2074C
:104338006FEA01015AD500204FF4807247EA0C0752
:10434800A24096F804C0074301EA0801D2437079F5
:10435800BCF1010F02EA01024FF40078316808BF8E
:1043680047F4807708FA04F801286FEA080808BFBC
:1043780047F40077022908EA020800F0858048EA35
:104388000108A74047EA0807DF631868D6E903125F
:104398004FF48046A64020EA06001860186840F6E8
:1043A800FE76A64020EA060601FA04F030431860BB
:1043B8001868C026A64020EA060018609201186E08
:1043C800C1F3830140F60F7602F470620A4306FADD
:1043D80004F102FA04F420EA010214430121002244
:1043E8001C66104629716A71BDE8F081820745D5BF
:1043F8000120A1E7996B326A1F20A04021EA000141
:10440800A2400A439A638BE7BCB9FEF7E3FF07466D
:1044180004E0FEF7DFFFC01B01283ED82B685B6B6A
:104428001904F6D40120FEF7DBFF2B68726A1A64C0
:104438000DE0FEF7CFFF01282FD82B685B6B002B10
:10444800F7DB0120FEF7CCFF2B68726A5A6404F090
:1044580010049A6CB16AB76840F2FF30A04022EAB3
:104468000002A1400A439A64DA6CF16AFF20A04076
:1044780022EA0002A1400A43DA644EE7BCFA8CF053
:10448800400959E70220704700F0FCFD0B4B9842A9
:104498000CD948F400482B6873E72B69032243F0D2
:1044A80008032B6110462A71BDE8F081044A2B6885
:1044B80090427FF666AF48F4804862E70068890951
:1044C80000B4C404D1F800C0BCF1000F00F0C780EC
:1044D8002DE9F04FDFF8B4E183B0884600254FF0AE
:1044E800010909FA05F212EA0C0674D0D8F804108A
:1044F80021F0100ABAF1020F74D06F000323D0F82C
:1045080000B0BB40DB4301F0030403EA0B0BBC40E3
:104518000AF1FF3A44EA0B04BAF1010F046040F2D1
:104528008280C468D8F808202340BA401A43CF00D4
:10453800C26050D54F4A136E43F001031366136EE1
:1045480025F0030404F1804403F0010304F58034EA
:10455800019305F00303019AA2689B000F279F406F
:10456800B0F1904F22EA070213D0434FB84272D0FD
:10457800424FB8426AD0424FB84271D0414FB84218
:1045880073D0414FB8420CBF0527062707FA03F33B
:104598001A43A260DEF80030F243CC0354BF134044
:1045A8003343CEF80030DEF804308F0354BF134095
:1045B8003343CEF80430DEF80830CC0254BF134041
:1045C8003343CEF80830DEF80C30890254BF13406C
:1045D8003343CEF80C3001353CFA05F381D103B0F2
:1045E800BDE8F08FEF0800EB870705F007043B6A8A
:1045F800A4004FF00F0A0AFA04FB23EA0B0AD8F8C2
:104608001030A34043EA0A033B626F000323D0F84B
:1046180000A0BB40DB4301F0030403EA0A0ABC40E4
:1046280044EA0A040460846804EA030AD8F80C40DF
:10463800BC4044EA0A048460D0F804A0C1F3001422
:104648002AEA0202AC40144344606AE7022707FAE8
:1046580003F31A439DE709FA03F31A4399E77047EE
:10466800032707FA03F31A4393E7042707FA03F328
:104678001A438EE700100240000400480008004872
:10468800000C0048001000480014004800040140D5
:1046980000285CD090F83A30052B58D090F83A3082
:1046A800022B54D03A4B70B51A6E42F001021A66CA
:1046B8001B6E82B003F001030193019B90F83A301E
:1046C80003F0FF02002B44D00446FDF7B9FFA368AE
:1046D80023F02002402A226841D06068E668116809
:1046E800256903433343E06A666A2B4321F01001CE
:1046F8000143A56A11603343D4E90C602B43254973
:10470800156843EAC64343EA0063207D294001282F
:1047180043EA010314BF00214FF480710B43136077
:104728009369002B09DBD4E90635206A91692B438C
:10473800034321F03F010B43936194F83A3003F0AF
:10474800FF004BB9012384F83A3002B070BD012054
:10475800704780F83920B7E7002002B070BD66685E
:1047680011682069E56A3343034321F01001606A48
:104778002943A56A11600343206B166805492B433A
:10478800656B43EAC0433140207D43EA0563BEE7D9
:1047980000100240113E00E03B4A10B4136868B9AB
:1047A80003F4C063B3F5806F14D0D2F880305DF89D
:1047B800044B23F48073C2F880307047B0F5007F53
:1047C8002FD023F4C06343F48063136000205DF8A6
:1047D800044B7047D2F880102C4B2D4821F480717F
:1047E800C2F88010116821F4C06141F400711160B1
:1047F8001C685169322303FB04F3A0FB03039B0CE1
:10480800480503F1010306D500E023B151694905C4
:1048180003F1FF33F9D41C4B5B695C05D6D5032043
:10482800D5E703F4C063B3F5806F09D0D2F88030C0
:104838005DF8044B43F480730020C2F88030704761
:10484800D2F88010114B124841F48071C2F88010E0
:10485800116821F4C06141F4007111601C6851694C
:10486800322303FB04F3A0FB03039B0C480503F16D
:104878000103D0D501E0002BCDD05169490503F1E2
:10488800FF33C8D5F7E700BF00700040E0050020FF
:1048980083DE1B43002800F06C812DE9F04103689A
:1048A800D90782B004462DD5B7498A68C96802F08D
:1048B8000C020C2A00F0F580082A00F0F7806368E3
:1048C800B3F5803F00F02E81B3F5A02F00F0E08112
:1048D800AD4D2A6822F480322A602A6822F48022A8
:1048E8002A60002B40F02381FEF774FD064605E0A0
:1048F800FEF770FD801B642800F237812B689F0348
:10490800F6D423689E0700F1A5801A0719D56369B4
:104918009D4D002B00F0D780D5F8943043F001036B
:10492800C5F89430FEF756FD064605E0FEF752FD41
:10493800801B022800F21981D5F894309F07F5D51D
:10494800236859073FD5904B9A6DD20000F12B810F
:104958009A6D42F080529A659B6D03F080530193E3
:10496800019B0126894D2A68D70540F1EE80A3688E
:10497800012B00F01A81052B00F0CB81824DD5F870
:10498800902022F00102C5F89020D5F8902022F05E
:104998000402C5F89020002B40F00E81FEF71AFDA6
:1049A80041F28837804606E0FEF714FDA0EB0800C8
:1049B800B84200F2DA80D5F890309A07F4D4002E85
:1049C80040F0238123689B0618D5A3696E4D002B00
:1049D80000F00781D5F8983043F00103C5F8983006
:1049E800FEF7F8FC064605E0FEF7F4FC801B0228FB
:1049F80000F2BB80D5F898309F07F5D5E06928B359
:104A0800614DAA6802F00C020C2A00F04E812A6857
:104A1800022822F080722A6000F0FD80EA6822F005
:104A28000302EA60EA6822F0887222F48032EA60BF
:104A3800FEF7D0FC2C46054605E0FEF7CBFC401BF4
:104A4800022800F2928023689B01F6D4002002B06D
:104A5800BDE8F0814C4A9368D26803F00C030C2B34
:104A680045D0042B47D0E368474D002B00F08380E6
:104A78002B6843F480732B60FEF7ACFC064604E019
:104A8800FEF7A8FC801B02286FD82B685805F7D5BD
:104A98006B68226923F0FE4343EA02636B60236874
:104AA80033E701F0030103297FF409AF364A12689E
:104AB80092037FF527AF6268002A7FF423AF0120B5
:104AC80002B0BDE8F081D5F8943023F00103C5F8B1
:104AD8009430FEF77FFC064604E0FEF77BFC801B63
:104AE800022842D8D5F894309807F6D428E702F07F
:104AF8000302022AB7D1244B1B685D0502D5E3687F
:104B0800002BDCD0204A20695368214923F0FE435A
:104B180043EA006353600868FEF718FC0028CED10A
:104B28002368F2E6184A136843F480331360FEF7EB
:104B380051FC154D064604E0FEF74CFC801B64282A
:104B480013D82B689B03F7D5DBE62A6842F48072FA
:104B58002A60FEF73FFC07462B68D8053FF507AFEC
:104B6800FEF738FCC01B0228F6D9032002B0BDE8C6
:104B7800F081012070472B6823F480732B60FEF7C7
:104B880029FC06460BE000BF001002400070004000
:104B9800E8050020FEF71EFC801B0228E5D82B68DC
:104BA8005905F7D4BCE70026DCE6614AD2F8903014
:104BB80043F00103C2F89030FEF70CFC5C4D8046D0
:104BC80041F2883705E0FEF705FCA0EB0800B84283
:104BD800CBD8D5F890309907F5D5002E3FF4F2AE32
:104BE80013E0D5F8983023F00103C5F89830FEF7A4
:104BF800F1FB064604E0FEF7EDFB801B0228B4D863
:104C0800D5F898309807F6D4F8E6494A936D23F01A
:104C180080539365D6E6FEF7DDFB064604E0FEF713
:104C2800D9FB801B0228A0D82B689901F7D4E96822
:104C3800404B226AA76AE66A606A0B401343D4E9CC
:104C48000C1243EA0723013843EAC663490843EADA
:104C580000130139520843EA4153013A43EA4263D7
:104C6800EB602B68324C43F080732B60EB6843F0A9
:104C78008073EB60FEF7AEFB054605E0FEF7AAFB86
:104C8800401B02283FF671AF23689A01F6D5DDE68E
:104C980003F18043A3F53C331A6842F480221A607A
:104CA8001A6842F480321A6041E701283FF408AFDD
:104CB800EB68226A03F0030191427FF400AF616A56
:104CC80003F0F0020139B2EB011F7FF4F8AEA16ADC
:104CD80003F4FE42B2EB012F7FF4F1AEE16A03F078
:104CE8007842B2EBC16F7FF4EAAE226B5208013A08
:104CF80003F4C001B1EB425F7FF4E1AE626B52088E
:104D0800013A03F0C063B3EB426F14BF01200020E7
:104D1800D6E6074BD3F8902042F00402C3F890205F
:104D2800D3F8902042F00102C3F8902044E700BF76
:104D3800001002400C809F01002800F00581AD4A58
:104D48002DE9F843136803F00F038B420CD2136864
:104D580023F00F030B431360136803F00F038B4218
:104D680002D00120BDE8F8830368DF0704460D463A
:104D780040F188804268032A00F0AD809E4B022AE9
:104D88001B6800F0FF805B05EBD59B4B996801F031
:104D98000C0104290AD0996801F00C01082905D0F2
:104DA800996801F00C010C2900F0FB804FF0000815
:104DB800914EB36823F003031A43B260FEF70AFB6F
:104DC80041F28837814605E0FEF704FBA0EB0900B5
:104DD800B84274D8B368626803F00C03B3EB820F6F
:104DE800F2D123689F0740F1D380580704D5824940
:104DF8008A6842F4E0628A60190706D57E4A936899
:104E080023F47C5343F4E06393607B4AA16893687E
:104E180023F0F0030B439360764E326802F00F02E2
:104E2800AA4237D823685A0706D57349E0688A68C2
:104E380022F4E06202438A601B0743D46E4A9368F7
:104E480003F00C03042B00F0D380936803F00C03E9
:104E5800082B00F09B80936803F00C030C2B75D093
:104E68000023654A654C9268654866490068C2F344
:104E78000312A25C02F01F02D3400B60BDE8F843A6
:104E8800FEF764BA9E07B0D45A4E326802F00F0299
:104E9800AA42C7D9326822F00F022A433260FEF7CD
:104EA80099FA41F288378046336803F00F03AB4222
:104EB800B8D0FEF78FFAA0EB0800B842F4D9032067
:104EC800BDE8F8834C4A2169936823F4605343EAA8
:104ED800C1039360B2E74849086880017FF541AF94
:104EE800CE68C868484F06F00306032ECE680CBF8C
:104EF80046494749C0F303100130B1FBF0F1C6F34E
:104F080006203D4E01FB00F1F068C0F3416001301E
:104F18004000B1FBF0F1B9427FF648AFB16811F03B
:104F2800F00F07D013F002083FF442AFA368002B3C
:104F38007FF43CAF30498B6823F0F00343F08003E3
:104F48008B604FF0800833E701207047D068D36842
:104F5800D26800F00300C3F303130328C2F3062248
:104F680003F101010CBF294B294BB3FBF1F303FB00
:104F780002F3214AD268C2F3416201325200B3FB04
:104F8800F2F36EE799033FF500AFEAE61F4B68E7D7
:104F9800B8F1000F3FF440AFB36823F0F003B360FB
:104FA8003AE7D868D968184E00F003000328D86893
:104FB8000CBF164B164BC1F303110131B3FBF1F3D0
:104FC800C0F306210C4803FB01F3C168C1F341613A
:104FD80001314900B3FBF1F3B3427FF6E7AE8368D2
:104FE80023F0F00343F0800383604FF08008DFE68E
:104FF800074B36E70020024000100240C494000826
:10500800E8050020E005002000B4C40400127A007E
:105018000024F400184B9A6802F00C02042A27D0E6
:105028009A6802F00C02082A24D09A6802F00C024E
:105038000C2A01D000207047D968D868DB6801F0D5
:105048000301C0F303100329C3F3062300F101028F
:105058000CBF0A480A48B0FBF2F000FB03F0064B0D
:10506800DB68C3F3416301335B00B0FBF3F07047C7
:1050780003487047014870470010024000127A0048
:105088000024F400014B1868704700BFE0050020B9
:10509800054B064A9B680649C3F302230868D35C9C
:1050A80003F01F03D840704700100240D494000852
:1050B800E0050020054B064A9B680649C3F3C22356
:1050C8000868D35C03F01F03D84070470010024003
:1050D800D4940008E00500202DE9F0410368044657
:1050E80013F4002082B057D09F4B9A6DD00040F146
:1050F8000D8100279D4D2B6843F480732B60FEF7CC
:1051080069F9064605E0FEF765F9801B022800F2FA
:105118000F812B68D905F6D5934B216CD3F89020D5
:1051280012F4407228D08A4226D0D3F89000D3F8DF
:10513800902042F48032C3F89020D3F8902022F4D3
:105148008032C3F8902020F44075C207C3F890500D
:1051580012D51D46FEF73EF941F28836804606E034
:10516800FEF738F9A0EB0800B04200F2E180D5F86C
:1051780090309B07F4D5216C7B4AD2F8903023F409
:1051880040730B43C2F89030002027B1764A936DE4
:1051980023F0805393652368DE0708D57249656854
:1051A800D1F8882022F003022A43C1F888209D07FD
:1051B80008D56D49A568D1F8882022F00C022A4349
:1051C800C1F88820590708D56749E568D1F88820CB
:1051D80022F030022A43C1F888201A0708D562490C
:1051E8002569D1F8882022F0C0022A43C1F8882016
:1051F8009F0608D55C496569D1F8882022F4406289
:105208002A43C1F888205E0608D55749A569D1F810
:10521800882022F440522A43C1F888201D0608D568
:105228005149E569D1F8882022F440422A43C1F85F
:105238008820D90508D54C49256AD1F8882022F458
:1052480040322A43C1F888209A0508D54649656A3C
:10525800D1F8882022F440222A43C1F888205F052B
:105268000BD54149A56AD1F8882022F440122A4377
:10527800B5F5801FC1F888205CD01E050BD53A49CA
:10528800E56AD1F8882022F440022A43B5F5800F58
:10529800C1F8882053D0DD040BD53349256BD1F8EC
:1052A800882022F040722A43B5F1807FC1F8882017
:1052B8004AD099040BD52C49656BD1F8882022F087
:1052C80040622A43B5F1006FC1F8882041D05A04E2
:1052D8000BD52549A56BD1F8882022F040622A43D6
:1052E800B5F1006FC1F8882038D01B040BD51E4AD1
:1052F800E16BD2F8883023F040530B43B1F1805F63
:10530800C2F888300DD002B0BDE8F0819A6D42F045
:1053180080529A659B6D03F080530193019B01278E
:10532800E8E6D36843F48033D36002B0BDE8F08187
:1053380003202AE7CA6842F48012CA609DE7CA6857
:1053480042F48012CA60A6E7CA6842F48012CA60B2
:10535800AFE7CA6842F48012CA60B8E7CA6842F484
:105368008012CA60C1E700BF001002400070004010
:1053780000286BD0F8B590F83D30044603F0FF02E2
:1053880063B322683B4EA569E0686168022384F82C
:105398003D30B24213685BD0B2F1804F3CD0A6F5E5
:1053A8009436B2421FD006F58066B2421BD006F58D
:1053B8009636B24217D006F54066B24257D006F587
:1053C8008066B24253D006F58066B2424FD023F0D1
:1053D80080032B431360D062916217E080F83C2071
:1053E800FDF790F9CDE7A668234F23F07003334308
:1053F800266923F44073334323F080032B43BA42D6
:105408001360D062916215D16369136301235361FC
:10541800002084F83D30F8BDA768266923F07003A2
:105428003B4323F44073334323F080032B4313603F
:10543800D0629162114B9A42E6D003F580639A429A
:10544800E2D003F580639A42E0D1DDE7012070479E
:10545800A768266923F070033B4323F44073334362
:1054680023F080032B431360D0629162CCE7266956
:10547800F3E700BF002C0140003401400040014028
:10548800704700BF00286BD0F8B590F83D3004464F
:1054980003F0FF0263B322683B4EA569E0686168C8
:1054A800022384F83D30B24213685BD0B2F1804FDA
:1054B8003CD0A6F59436B2421FD006F58066B242BB
:1054C8001BD006F59636B24217D006F54066B242B2
:1054D80057D006F58066B24253D006F58066B242D0
:1054E8004FD023F080032B431360D062916217E002
:1054F80080F83C20FFF7C4FFCDE7A668234F23F0D0
:1055080070033343266923F44073334323F0800345
:105518002B43BA421360D062916215D16369136359
:1055280001235361002084F83D30F8BDA76826693F
:1055380023F070033B4323F44073334323F0800389
:105548002B431360D0629162114B9A42E6D003F567
:1055580080639A42E2D003F580639A42E0D1DDE7A6
:1055680001207047A768266923F070033B4323F4A2
:105578004073334323F080032B431360D06291625E
:10558800CCE72669F3E700BF002C01400034014056
:105598000040014090F83C30012B00F0B281F0B49B
:1055A8000223012480F83C4080F83D30142A54D866
:1055B800DFE812F015005300530053009C0053001D
:1055C800530053006601530053005300E00053009A
:1055D8005300530024015300530053005C00036838
:1055E800D1F808C01D6A0F68A44E25F001051D6298
:1055F8001A6A5D689C6924F4803422F0020224F05F
:105608007304B34242EA0C0244EA070408D006F5E0
:105618000066B34204D006F54066B34240F08B8181
:10562800CE6822F008023243D1E9056725F44075B7
:105638003E4322F0040235434E685D609C615E6320
:105648001A629C690D6944F008049C61996921F00B
:10565800040199619A692A439A610023012280F81A
:105668003D2080F83C30F0BC184670470368D1F8FC
:1056780008C01D6A0F68814E25F480151D621C6ADA
:105688005D681A6D22F0807224F4001422F4E0425E
:10569800B34244EA0C5442EA07220FD006F50066EA
:1056A800B3420BD006F54066B34207D006F58066D4
:1056B800B34203D006F58066B34204D14E6925F49F
:1056C800802545EA86254E685D601A65DE641C62A1
:1056D8001C6D0D6944F400641C65196D21F480612A
:1056E80019651A6D42EA05221A65B6E70368D1F80A
:1056F80008C01D6A0F68614E25F010051D621C6AFE
:105708005D689A6922F0807224F0200422F4E6424F
:10571800B34244EA0C1442EA072200F0F48006F58A
:105728000066B34200F0EF8006F54066B34207D04A
:1057380006F58066B34203D006F58066B34206D10B
:10574800D1E9056725F440653E4345EA86054E687C
:105758005D609A619E631C629C690D6944F40064F3
:105768009C61996921F4806199619A6942EA0522EC
:105778009A6172E70368D1F808C01D6A0F683F4E46
:1057880025F480551D621C6A5D68DA6922F0807212
:1057980024F4005422F4E642B34244EA0C3442EAC8
:1057A800072200F0C08006F50066B34200F0BB8017
:1057B80006F54066B34207D006F58066B34203D0CB
:1057C80006F58066B34206D1D1E9056725F4404560
:1057D8003E4345EA86154E685D60DA611E641C62C8
:1057E800DC690D6944F40064DC61D96921F48061E5
:1057F800D961DA6942EA0522DA612EE70368D1F84D
:1058080008C01D6A0F681D4E25F480351D621C6A8C
:105818005D681A6D22F4803224F4003422F070029C
:10582800B34244EA0C4442EA07020FD006F5006688
:10583800B3420BD006F54066B34207D006F5806642
:10584800B34203D006F58066B34204D14E6925F40D
:10585800803545EA06254E685D601A659E641C62BF
:105868001C6D0D6944F008041C65196D21F00401D4
:1058780019651A6D2A431A65EFE600BF002C01402E
:105888000368D1F808C01D6A0F68304E25F480758A
:105898001D621C6A5D68DA6922F4803224F400749F
:1058A80022F07302B34244EA0C2442EA070232D0DF
:1058B80006F50066B3422ED006F54066B34207D01F
:1058C80006F58066B34203D006F58066B34206D17A
:1058D800D1E9056725F440553E4345EA06154E686B
:1058E8005D60DA61DE631C62DC690D6944F00804FE
:1058F800DC61D96921F00401D961DA692A43DA61E6
:10590800ABE602207047CE6824F0800444EA06140F
:1059180024F0400414E7CE6824F4006444EA062422
:1059280024F48064D4E7CE6824F4004444EA0634BE
:1059380024F4804448E706F58066B3423FF470AE2D
:1059480006F58066B3427FF477AE69E6002C014025
:1059580090F83C30012B00F08A8002220368F0B4F2
:1059680080F83D209D680A685A4C702A04EA0504AC
:105978004FF0010580F83C509C607AD024D8302A3A
:105988006BD040F2A080502A00F08380602A40D07B
:10599800402A35D11D6A1E6A4C68CF6826F0010678
:1059A8001E629A6925F00A0122F0F00242EA071203
:1059B80021439A6119629A6822F4401222F0700217
:1059C80042F047029A601BE0434CA24245D03BD8C4
:1059D800B2F1101F41D0103CA2423ED0B2F5005F98
:1059E8000ED1D1E90152CC6899682A4342EA0422CF
:1059F80021F47F410A439A609A6842F480429A608F
:105A08000023012280F83D2080F83C30F0BC184685
:105A180070471C6A4D68CE6824F010041C629969AE
:105A28001A6A21F4704122F0A00242EA051241EA02
:105A3800063199611A629A6822F4401222F07002C3
:105A480042F067029A60DBE724498A4205D01031A8
:105A58008A4202D030398A42D2D1996821F4401161
:105A680042F0070221F070010A439A60C8E7022059
:105A78007047D1E90152CC6899682A4342EA042266
:105A880021F47F410A439A609A6842F077029A604B
:105A9800B6E71D6A1E6A4C68CF6826F001061E62CA
:105AA8009A6925F00A0122F0F00242EA071221431E
:105AB8009A6119629A6822F4401222F0700242F048
:105AC80057029A609CE7102AC7D0202AC5D0002A1E
