:020000040800F2
:10000000680D0020C5000008CD0000086525000827
:1000100000000000000000000000000000000000E0
:10002000000000000000000000000000D1000008F7
:100030000000000000000000D3000008DD450008BB
:10004000D7000008D7000008D7000008D700000834
:10005000D7000008CD080008D7000008D700000826
:1000600000000000A1080008D7000008B50800083B
:10007000D700000861460008D7000008A94600081C
:10008000D70000080000000000000000D7000008B2
:1000900000000000D7000008D7000008D7000008C3
:1000A00000000000D700000800000000E156000832
:1000B0000348854600F090FB00480047296000088F
:1000C000680D00200448804704480047FEE7FEE72B
:1000D000FEE7FEE7FEE7FEE705460008B100000880
:1000E00070B506466830049D2EC000240546383D94
:1000F0000C362C7521466C75783802E0B668641CA5
:10010000E4B2002E01D0052CF8D322460C235A432A
:10011000121891602C720088642148437D21C90027
:1001200000F045FAA87570BDF0B5044687B0C06E02
:100130000090A06E01900E46E180274600214037D6
:1001400079753976F974254639750C35009805F0BE
:10015000FEFA0021019804F081F96088704301B231
:10016000009805F05BFB00221146019804F0F0F8BE
:10017000A8882A88704301B2019804F0E9F86888D9
:100180002A88704301B2009805F008FB288821886E
:1001900048437D21C90000F00AFA401CA080A868ED
:1001A000A0600020F87507B0F0BDF0B5044683B03C
:1001B00001200290A0882546403500287ED0401EB0
:1001C000A080287E002805D1687D0028206F05D0FA
:1001D00041688847A088002870D0CFE0C168002916
:1001E0000BD0E97D491CC9B2E975AA7D914204D9B9
:1001F000C16888470020E874E875206F0169884766
:10020000002803D0E87C7F2801D2401CE874206FCE
:10021000C1680029E97C04D0AA7D5208914202D02D
:10022000D8E77F29D6D1006803F0F8FF00900028B6
:1002300000DA404207B20620205E0028009802DD66
:10024000002805DC01E0002802DB0020E874C1E79B
:100250006989B8B2884205D9206F41688847012072
:100260006875B7E7A9898842B4D90020064601908D
:10027000E06E05F08FFA206F81688847A06800283B
:100280002FD00221415EB94210DAA16888680028A7
:100290002AD002228A5E042601928E5FA060297E07
:1002A000491C29760221415EB942EEDBA068022298
:1002B000825E0199511A0422825E00E016E00098E5
:1002C000921B504300F089F9801901B20022A06E00
:1002D00004F03EF80120A08020465C30A06006209B
:1002E0003DE00020A0803CE00020A080A068002825
:1002F00037D0287E002802D001280BD00FE0606F95
:1003000003F021FA01202875606F03F020FA002025
:10031000E87404E0606F03F018FA00202875A06804
:10032000E28881885143028809B2A06E04F010F877
:10033000A068E28841885143028809B2E06E05F066
:100340002DFAA6682188308848437D21C90000F035
:100350002EF9401CA080B068A060287E401C287642
:100360000CE0297A287E491E884202D100200290A2
:1003700004E0072802D100202876A080029803B06C
:10038000F0BD70B5044680880125002804D0401EC9
:100390000004000CA08025D1A068002821D081880D
:1003A000E2885143028809B2A06E03F0D1FFA06831
:1003B000E28841885143028809B2E06E05F0EEF907
:1003C000A6682188308848437D21C90000F0EFF8F5
:1003D000401CA080B068A0604034207E401C207685
:1003E00000E00025284670BD0146896800200029EC
:1003F00000D10120704710B50021C46E816081805A
:10040000204603F00BFF01460022204605F0C6F906
:1004100010BD014640310A7E497A00208A4200D34D
:10042000012070470C2359430818828170470C2320
:1004300059430818C28170470C2359430818028297
:1004400070470C2251430818808970470C22514391
:1004500009180E20085E70470C225143091810201D
:10046000085E70474030007A70474030007D70472A
:100470000022027011460C234B431B185A60491C82
:100480009A60C9B2DA600529F5D37047F7B586B02E
:10049000069900200B5602930799002900DC494277
:1004A0000491002A02D0012A03D005E0002009B0FF
:1004B000F0BD079809B0F0BD0C21069B4143C91857
:1004C000C96891421FD1411C21D00C214843C11859
:1004D0008D684868049A83B291B20C465C43120C52
:1004E0005343240C000C1B199CB24143091942438D
:1004F000080C1B0CC0181018079928410029D9DCDA
:10050000404209B0F0BD401C40B20528D4DB019246
:100510000392002A01DA544200E014460120D10F70
:10052000C0070D182146284600F041F8691A491EF7
:100530001F25E807009100F03AF800990646484365
:10054000E9070F1A2146E80700F031F80146614338
:10055000EA07511A009A76007F006D1C974201D37A
:10056000BF1A761C40004900A14201D3091B401C60
:10057000621A9642EED3964201D1002FEAD0019939
:10058000401C002900DA4042029A0C235A43069B81
:100590000399D218203D9560D16050600299491CA2
:1005A00049B2052900DB0021069A117092E730B5A7
:1005B0000B46014600202022012409E00D46D540CB
:1005C0009D4205D31D469540491B2546954040193F
:1005D0001546521E002DF1DC30BD70B500242546B5
:1005E000002801DA01244042002901DA01254942AC
:1005F000FFF7DDFFAC4200D04042002C00D0494262
:1006000070BDF8B502464A40D40F42004B00520874
:100610005B089A4202D20246084611464A0023D09D
:10062000C30D4A00DDB2120EAD1A202D35DA490293
:100630000126490AF6058A19002C00D052422021D1
:100640004F1B1146B9402A411018C20D9A4221D0C1
:10065000002C17D0012D08DCDA05801AD20F801982
:10066000D207DBB200F052F8F8BDDA05801A012398
:1006700040001B06C01880185A428018CA0F104349
:10068000490007E04908C2071143DA05801A8019BA
:100690004008801800F032F8F8BD61000122511ABC
:1006A000001BF7E70122D2075140AAE70122D20737
:1006B0005040A6E7C217C10F504010B54018CA07F6
:1006C0009623002100F022F810BDC20F4100400225
:1006D0000123400ADB05D207090EC0187F2901DA81
:1006E00000207047962903DC9623591AC84001E080
:1006F00096398840002AF4D040427047002904DA35
:10070000401C490001D140084000704770B40024EB
:10071000050C05D11024000402D1002921D0112498
:10072000050E01D100020834050F01D10001241D7E
:10073000850F01D18000A41C002801DB4000641C4F
:10074000002908D020252E1B0D46F540A14000D0E1
:1007500001212943084301061B1B000ADB1D02D5AA
:10076000002070BC7047DB05181880180029F8DAE3
:10077000401C4900F5D170BC40084000704770B57E
:10078000002801DC002070BD410040020126400A23
:10079000F605090E8019CA0701D14000491E4D1007
:1007A000002211463F353346CB409B18D418844273
:1007B00001D8001B1A464000491C1729F3DD5100DF
:1007C000814202D20021C94300E00021E8058018DF
:1007D000FFF794FF70BD0000064C0125064E05E0B2
:1007E000E36807CC2B430C3C98471034B442F7D352
:1007F000FFF762FCB4670008D467000870B58C1876
:100800000578401C6B075B0F01D10378401C2A114F
:1008100006D10278401C03E006780E70401C491C8B
:100820005B1EF9D12B0705D40023521E0DD40B708B
:10083000491CFAE70378401CCB1A921C03E01D7890
:100840000D70491C5B1C521EF9D5A142D8D3002063
:1008500070BD30B40AB203460846091414460D466A
:1008600054434D4364191D886D43A54215D2B225EA
:10087000ED5C240E641B2406E40DE3189B885A43A8
:10088000D417640CA218D21310465943CA17520C3D
:100890005118C91380B20904084330BC70470000E6
:1008A00010B503490720486004F018F810BD000097
:1008B0000000024004480168C943890402D40121B0
:1008C000490341607047000000000240054841694B
:1008D000C907C90F05D010B50121416104F0C9FD58
:1008E00010BD7047000401407047816F7222525C56
:1008F000022A0AD14A6809699162816F8A68496946
:100900009162816FCA6889699162012160300175C5
:100910000020704710B40021002810D001784378DF
:1009200000225918002B07D98418A478521C61188A
:10093000D2B289B29342F7D8080A4018C1B210BCAB
:100940000846704700214182017502464175803298
:100950009175D17511765176FF3091760130C1765F
:10096000017741777047002804D010B4019C1EC065
:1009700010BC70477047000010B52621074A41435C
:100980008C182421095D002906D1054980000858EA
:1009900003F08CFCE083208210BD0000D40700200F
:1009A000C805002070B526224243124B0021D21800
:1009B000118051809180D1809181D18111825182A9
:1009C000D183D18211835183840091830A48118499
:1009D000005902F04DFD09480021005902F048FD80
:1009E0000748005903F0AAFC0648005902F0ABFE84
:1009F00070BD0000D4070020D0050020D4050020E1
:100A0000C8050020E005002070470000F8B50F463B
:100A10000446C16A4030427A0020002A33D0896AF5
:100A200025468035EA8D914202D3E081388020E06E
:100A30002426AE5FE681002E1AD017498E4220D0C0
:100A40002146C031CA79012A19D0688DA288801A3E
:100A500000B228858988FFF7C0FDA8856078E16924
:100A6000628B4143304650430A225043FFF7B5FDA5
:100A700038803946204603F0E9FB014608E0A885A6
:100A8000ECE7288EF4E7E2782270E08100213880DC
:100A90003888A0810846F8BDFF7F000010B40E2200
:100AA000825E0C4C04230146C35E8031A24208D012
:100AB0004C8DA4184C858C8D1419E31883800A84FE
:100AC00002E0098C5918818001460420085E10BCA0
:100AD00070470000FF7F000070B5C26AD168022431
:100AE000A143D1600021034640339972D972012598
:100AF0005D72418219735973997340339985A226A7
:100B0000355419760170DB8D936251621168294367
:100B10001160D1682143D16000F094F870BD0000ED
:100B2000F0B50446C56AC08A627887B050430104B4
:100B3000A08A274650434004000C0090A06AC037AA
:100B4000060C890C03907E80002973D00620414357
:100B50003948FFF72CFD388080B27D217043C900F1
:100B6000FFF73BFD26468036F0850004B063009811
:100B7000308606210398FFF71AFD02460690608B27
:100B8000029001461046FFF712FDE1694843706389
:100B900006980A2148430099FFF709FDF063B979E7
:100BA00002984843A18CFFF702FD401EB880214601
:100BB000012040314872097A2A460B051F49183234
:100BC00009789C4689180A681D4B1F78F023BB40A2
:100BD0001B4F9A4363463F781B0CBB401A430A6085
:100BE000F18DA96269690143696100222A6129685E
:100BF0000423994319432960E96802231943E960F2
:100C0000E9680143E9606A62296A01432962296847
:100C1000014329602620015D0020002907D98300B7
:100C20001B19401CB26BC0B21A658842F7D307B0DB
:100C3000F0BDFFE796208EE7102700008C670008C4
:100C400093670008F0B42021826B0F5C0546A03545
:100C50009446066C046BC36B426C416B002F674675
:100C60001ED03F69BB4333D0002301277B40366948
:100C70009B00B2432ED000225200134322699143BD
:100C80002AD000210B43AB71A979072944D20A006D
:100C90007A441279921897443F26302B3A21350036
:100CA0003669B2430ED000223E699200B3430BD0A6
:100CB00000235B001A432369994307D000210A43AC
:100CC000AA71E1E70122EFE70123F2E70121F6E74C
:100CD0000123CAE70122CFE70121D3E7418C124A61
:100CE000891881801BE0418C104A8918818016E0A8
:100CF000418C0F4A8918818011E0418C0D4A891876
:100D000081800CE0418C0C4A8918818007E0418C7D
:100D10000A4A8918818002E0002249210A54818808
:100D200080304185F0BC704755150000FF3F000042
:100D3000AA6A00005695FFFF01C0FFFFABEAFFFF64
:100D4000F0B504464034617AC36A85B0002973D097
:100D50000546A0350222A979AA5600920246203201
:100D600094461278002A026B0292426B01922AD0BA
:100D7000026C876B9646C66B426C03923F69BE431A
:100D800043D0002601277E4077463A69B600039F8C
:100D900097433CD000277F003E43029F3A69019F62
:100DA000974336D000273E43AE71AE79024680327B
:100DB000072E6FD237007F443F79FF19BF449E3D15
:100DC00065518E2B7A00876B466CBE46C76B026CF2
:100DD00003971769BE4312D0002297007646326906
:100DE000039E96430DD0002676003743029E32695B
:100DF000019E964307D000263743AF71D5E7012205
:100E0000EBE70126F0E70126F6E70126BAE701271E
:100E1000C1E70127C7E7042902D0012904D06FE008
:100E20000121A970418C57E00021C943A970468C6B
:100E300082497118518563E0FDE0052902D003293C
:100E400007D05DE00121A970468C7C49711851855D
:100E500056E00021C943A970468C79497118518523
:100E60004EE0012902D0022907D049E00121A970F2
:100E7000468C73497118518542E00021C943A9701D
:100E8000468C490C711851853AE0032903D0062994
:100E900008D035E032E00121A970468C694971180B
:100EA00051852DE00021C943A970468C664971180F
:100EB000518525E0022902D0042907D020E0012134
:100EC000A970468C60497118518519E00021C94309
:100ED000A970468C5D497118518511E0062902D030
:100EE000052906D00CE00121A970468C57497118DC
:100EF000F2E70021C943A970418CEDE7002161723E
:100F00000226AE5700998E4202D0002161731176FD
:100F1000C721095C012901D1518D8180217B0029E4
:100F20001AD0667B614689798E4202D2617B491C68
:100F30006173596B8EB2996AB6468FB2A17BA67B5C
:100F400009047144002E16D07F1CBEB27143E67AAC
:100F5000002E06D000230CE0207B401C2073586B31
:100F600069E09E6AD78DBE421CD29E6A761C9E6244
:100F70000123E37216E0A67A002E04D0BF1CBBB298
:100F8000594300230DE07F1CBFB2794355273F0230
:100F9000BE4507D29E6A002E04D09E6A761E9E62CF
:100FA0000123A3721646D26B8A4242D8337EF2697D
:100FB0009B001B181B6DD21AF261B26B8A4207D8D4
:100FC0000223EB565A43337E9B00181802650DE04E
:100FD000327E920012181165327E920012180220A1
:100FE000285648431065F2691018F061307E624659
:100FF000401CC0B230769279904201D10020307608
:10100000607A002814D0607B62469279904207D2C1
:10101000706BFFF7CCFA022169564843B08408E0B0
:101020001146F069FFF7D9FA0146706BFFF7D5FA60
:10103000B0840020A073002005B0F0BDAA2A0000F3
:1010400055550000FF7F0000ABAAFFFF56D5FFFFFC
:10105000F8B5044625464035697AC06A002932D081
:10106000A97B491CA973816A7D20C000491C4143AA
:101070002046C030028840885043FFF798FAA97B89
:1010800080B281421FD30026E6812046FFF7DAFDB9
:10109000AE732E73214620318A790020002A0AD9A6
:1010A0002246803287003F19936B3B65401C8B7949
:1010B000C0B28342F6D86E738034A68426768979CE
:1010C000A06B4843E0610020F8BD0000F0B583B09C
:1010D00000250446403400952278012A3BD00123A4
:1010E000237002689668760770D44F4F4E68BE42F0
:1010F0006ED0966A0F78BB401E4396620123826BC6
:101100001B079A421FD0012A1DD0022A1BD0032A96
:1011100019D0042A17D0052A15D0062A13D0072A79
:1011200011D002688B6856697607760FB3420AD0F1
:101130005369DB08DB005361006842690B7A5B0787
:101140005B0F1A4342610868102807D0112805D0A8
:10115000122803D05EE0022003B0F0BD334A93684A
:10116000102809D011280AD00120000603439360FB
:101170000868102806D04DE00120C005F6E70120E0
:101180008005F3E72B482A490068FFF710FA0A2187
:101190004843009001903DD0274988423FD800281D
:1011A00012DDC007C00F02D00099491E00910199BD
:1011B000401C491C88422DDA009A801C521E521E87
:1011C00000928842F8DB25E00020F0E71DE0FFE711
:1011D000906A0E78B340984390620868102803D054
:1011E000112801D0122815D110498A68102806D07C
:1011F000112807D00120000682438A600AE00120FE
:10120000C005F9E701208005F6E7416C2022114373
:101210004164012500202070284603B0F0BD0098ED
:10122000401E0090FCD1F5E70110000000270140AE
:1012300040420F000C060020FFFFFF7FF8B500259D
:101240000446002803D0606C002802D008E001208A
:10125000F8BD0020A06440210855204600F0A8F801
:10126000606C1022C006002870DB20688168490786
:101270006CD4616C13019943022319436164816842
:101280008907890F012905D10168C9070FD1C168F4
:1012900009040CD4C16818239943A3681943C16099
:1012A0002068016963688900890819430161206821
:1012B000C1683D4B1940C160A069E1698003C90361
:1012C0000843216A4B031843636B012B02D00123AF
:1012D0001B0300E000231843E36818432369022B33
:1012E00009D000231843236B666A5B00184301236F
:1012F000012E02D00AE00423F4E7002927D0616C14
:10130000202631436164A16C1943A164A16A0E4691
:10131000FF3EC23E02D0E66A314308432168CE68F0
:101320000643CE600126A16B3607B14213D00129D6
:1013300011D002290FD003290DD004290BD0052983
:1013400009D0062907D0072905D010E028E001219F
:1013500009040843DAE721684E69F608F6004E6191
:1013600021684E69278F7F077F0F3E434E612168BA
:10137000C9680E4E3140814207D10020A064606CE4
:1013800080088000401C606408E0606C0221884393
:1013900010436064A06C1843A06401252846F8BD82
:1013A000606C10436064F8E71902FEFFE7FF3F83BB
:1013B00070B586B000250646009501950295039507
:1013C00004950068214988423ED121498A69401527
:1013D00002438A618A69024005924A690002024317
:1013E0004A614A69024005924A69400002434A61E3
:1013F0004969032401400591382000900920019497
:101400006946C00600F064F8022000906946029523
:101410000194104800F05CF8104C0F486560A5601E
:1014200020608020E060400020618000606120201A
:10143000A0610002E061204600F012F8002801D00F
:10144000FFF752FAF463666206B070BD00240140F3
:101450000010024000040048080002406407002019
:10146000002801D10120704770B5044602202146B2
:1014700020310D464870226811681248A368014067
:10148000606826691843E368334318436369184367
:10149000A3691843E3691843084310600A492068A8
:1014A00040181421FFF783F8800020640748E063A8
:1014B0000020A062E06220636063A0630121697084
:1014C000287070BD0FC0FFFFF8FFFDBF0000024095
:1014D0000B680022002B7DD0F8B401270B689740E1
:1014E0003B4078D04C68022C01D0122C0ED1D4088D
:1014F000A4002418A446246A5507ED0E0F26AE401A
:10150000B4430E69AE402643644626620568560021
:101510000324B440A446A5430C79A407A40FB44007
:101520002C4304604C68012C05D0022C03D0112CF4
:1015300001D0122C0FD185686446A5432C46CD6896
:10154000B5402543856045680C79BD43E406E40F4A
:1015500094402C434460C4686546AC438D68B540F4
:101560002543C5604C68E40045D5274CA569012694
:101570003543A561A469950834400094234CAD001F
:101580002F19BC6895072E0F0F25B540AC430925D0
:10159000ED06A84201D100250AE01D4DA84201D167
:1015A000012505E01B4DA84201D1022500E00525DB
:1015B000B5402543BD60184C25684E689D43F60331
:1015C00000D51D43256065684E689D43B60300D570
:1015D0001D4301E016E00EE06560A5684E689D437E
:1015E000F60200D51D43A560E5684E689D43B6022E
:1015F00000D51D43E5600B68521CD34000D06CE75A
:10160000F8BC704770470000001002400000014025
:10161000000400480008004800040140002A01D0EE
:10162000816170478162704701480068704700001F
:101630002006002002480168491C01607047000034
:101640002006002010B506480168102211430160F1
:10165000022000F007F800F017F8002010BD00008D
:101660000020024010B5044600F0B0F97D21C90009
:10167000FEF79DFF00F0CEFB00222146501E00F039
:1016800023F8002010BD0000084881B081690122C4
:1016900011438161816911400091C26901040A43CB
:1016A000C261C0690840009001B07047001002405C
:1016B000002805DBC106C90E0120884001490860E9
:1016C0007047000000E100E08207D30EFF229A403D
:1016D0008907090E9940002808DB830809489B0008
:1016E0001818036893430B43036070470007000F0B
:1016F0000838830804489B001B18D86990430843A6
:10170000D861704700E400E000ED00E0F8B5044661
:101710000068C0035BD539480027C069C00008D401
:101720003648C26901040A43C261C0690840012702
:101730000090334D2868C00511D42868A9150843C6
:101740002860FFF771FF06462868C00507D4FFF739
:101750006BFF801B642826D82868C005F7D527486A
:10176000006A03210902084023D062680A408242CD
:101770001FD0224E306A326A8843012109040A438D
:101780003262326A8A4332623062C00711D0FFF798
:101790004BFF316A054689070BD41A4EFFF744FF09
:1017A000401BB04201D90320F8BD1448006A8007ED
:1017B000F4D51248016A0322120291436268114370
:1017C0000162002F03D0C26901048A43C2612078FC
:1017D000C00706D00948016BA26889088900114337
:1017E00001632078800606D50448016B10229143DE
:1017F000E268114301630020F8BD000000100240C0
:101800000070004088130000F0B50546614889B0BB
:1018100000680F46C007C00FB8420AD25D48016891
:1018200049084900394301600068C007C00FB84249
:1018300071D12878800706D557484168F022914336
:10184000AA68114341602878C00754D0686801280D
:1018500021D051490228096822D089075BD54E4C16
:1018600061688908890001436160FFF7DDFE064673
:1018700069684A48012916D06268022925D01207F2
:10188000920F38D00446FFF7CFFE801BA0422DD91F
:10189000032009B0F0BD4049096889033BD5DEE764
:1018A000890138D5DBE762681207920F012A22D03E
:1018B0000446FFF7B9FE801BA042E9D836484068CD
:1018C0000007800F0128F4D115E01207920F022AB9
:1018D00011D00446FFF7A8FE801BA042D8D82E489E
:1018E00040680007800F0228F4D104E02A484068CD
:1018F0000007800FC7D127480168C907C90FB9423F
:101900000CD9016849084900394301600068C007E3
:10191000C00FB84202D0012009B0F0BD28784007BE
:1019200007D51D484168072212029143EA68114316
:1019300041601B4A6C460FCA0FC41A4B164D0FCBA1
:101940000FC46A680C20114601401748042913D0BF
:10195000082911D19102090F6B465C5CE96A04AB5E
:101960000907090F595CD20303D5FEF720FE604337
:1019700002E00E492046484369680D4A0906090FEE
:10198000515CC8400B4908600220FFF76BFE002045
:1019900009B0F0BD00200240001002408813000092
:1019A000481A0008581A000800127A0000093D0081
:1019B000746700080C060020034801680122D20465
:1019C00011430160704700000010024001480068A8
:1019D000704700000C06002004480549006849686B
:1019E000044A4905490F515CC84070470C06002065
:1019F000001002408467000810B513A00FC888B01B
:101A00006C460FC414A30FCB0FC417494A680C20AF
:101A1000134603401548042B0FD0082B0DD1930219
:101A20001C0F6B461C5DC96A04AB0907090F595CA2
:101A3000D20304D5FEF7BBFD604308B010BD0C48CF
:101A400008B0604310BD0000020304050607080942
:101A50000A0B0C0D0E0F10100102030405060708F7
:101A6000090A0B0C0D0E0F100010024000127A0034
:101A700000093D00F8B504460078E24DC0074BD0A0
:101A800068680007800F012807D068680007800F8A
:101A9000022809D16868C00306D5286880033BD5B1
:101AA000606800287ED037E0012062680004012AC7
:101AB0001CD08100002A01D0052A1BD02A6882434D
:101AC0002A602868884328606068002816D0FFF7DD
:101AD000ABFD0646286880031ED4FFF7A5FD801BDA
:101AE000642878D828688003F7D515E02968014371
:101AF0002960E9E72A680A432A60F7E7FFF794FDBF
:101B000006462868800307D5FFF78EFD801B6428F2
:101B100061D828688003F7D42078800740D56868AA
:101B20000007800F07D068680007800F022809D1DE
:101B30006868C00306D42868800718D5E0680128C3
:101B400030D114E0E0680028286818D0012108434B
:101B50002860FFF769FD06462868800707D4FFF76D
:101B600063FD801B022836D828688007F7D52868CF
:101B7000F82188432169C9000843286010E0400823
:101B800040002860FFF750FD06462868800707D50B
:101B9000FFF74AFD801B02281DD828688007F7D46C
:101BA000207800E02BE1000728D5E069002813D059
:101BB000696A012001436962FFF736FD0646686ADB
:101BC00080071BD4FFF730FD801B022803D8686A0A
:101BD0008007F7D512E08DE0686A4008400068622F
:101BE000FFF722FD0646686A800707D5FFF71CFD50
:101BF000801B02287ED8686A8007F7D420784007C7
:101C000068D500200090E869C00008D4E869012187
:101C100009070843E861E8690840012000907A4F0D
:101C20003868C00511D43868B91508433860FFF723
:101C3000FBFC06463868C00507D4FFF7F5FC801B9F
:101C4000642857D83868C005F7D5A06801281ED089
:101C5000002801D005281ED0286A400840002862CC
:101C6000296A042081432962A068684E00281BD09D
:101C7000FFF7DAFC0746286A800723D4FFF7D4FC75
:101C8000C01BB04260D8286A8007F7D51AE0296ADD
:101C900001200143E7E7286A042108432862286AF3
:101CA000012108432862DFE7FFF7BEFC0746286AE8
:101CB000800707D5FFF7B8FCC01BB04244D8286A9C
:101CC0008007F7D40098002804D0E96901200007B4
:101CD0008143E9612078C0061CD56069012835D0B0
:101CE000401D51D0686B042108436863686B40084D
:101CF000400000E028E06863FFF796FC0646686B4A
:101D0000800707D5FFF790FC801B02281CD8686B62
:101D10008007F7D4206A00286FD069680907890F07
:101D200002296CD0012636060228286831D0B0433B
:101D30002860FFF779FC0446286880015DD5FFF72D
:101D400073FC001B022855D90320F8BD696B0420E1
:101D500001436963686B012108436863FFF764FC12
:101D60000646686B800707D4FFF75EFC801B0228DD
:101D7000EAD8686B8007F7D5686BF8218843A169BA
:101D8000C90008436863C5E7696B04208143696340
:101D9000F2E7B0432860FFF747FC07462868800158
:101DA00007D5FFF741FCC01B0228CDD82868800169
:101DB000F7D4E86AE16A000900010843E862A16A11
:101DC000606A014368683D221204904301436960E0
:101DD000286830432860FFF727FC04462868800104
:101DE0000BD4FFF721FC001B0228ADD82868800126
:101DF000F7D502E028688001A1D40020F8BD0120B9
:101E0000F8BD000000100240007000408813000080
:101E1000704700000B4910B4401E884202D910BC24
:101E2000012070470849486108480722C3691B021E
:101E30001B0A4C042343C361002088610A6110BC63
:101E400070470000FFFFFF0000E000E004ED00E04D
:101E500010B5FFF7DDFF10BD034620331A7F012ABE
:101E600001D10220704730B401241C7702225A7736
:101E70000325CA682D02AA438D6800682A43A5027B
:101E8000AA434D682A43E502AA430D682A43250365
:101E9000AA430D692A436503AA434D6989692A4308
:101EA000A503AA430A43E503AA430A4342645C77B5
:101EB0000020187730BC7047002801D101207047FE
:101EC000F0B5054604462035687F87B00E460028E9
:101ED00003D12877204600F04AF802206877211DB8
:101EE000206802F0FBFBB36831680322206802F02F
:101EF000B3FC206881690C2291438161206881696B
:101F000072681143816120684168802211434160F9
:101F1000206881687027B943816020688168402209
:101F20001143816020688168C908C9008160206808
:101F3000816804221143816000200590049006907E
:101F4000039000970290F06801906946206802F0C3
:101F500047FC20684168B9434160206841685022CD
:101F60001143416001206877002007B0F0BD704741
:101F700002462032137F012B01D10220704770B43A
:101F80000123137702245477046865687026B543EB
:101F90006560046865680E68354365600468A56817
:101FA0008026B543A5600068846849680C43846056
:101FB00053770020107770BC7047002801D10120B2
:101FC000704770B5054604462035687F002803D168
:101FD0002877204600F00AF802206877211D206843
:101FE00002F07CFB01206877002070BD00B587B04F
:101FF0000021009101910291039104910068012157
:10200000890788421BD10F48C16901221143C16170
:10201000C169114005914269012149040A434261A5
:10202000406908400590072000900221032003909A
:102030000191049109206946C006FFF749FA07B0EB
:1020400000BD000000100240F0B5054620352A7F93
:10205000012A19D001222A7702226A7703689A6836
:102060007724A243FF242402A2439A600E687022C0
:102070000723502E42D00EDC202E7DD006DC002E11
:102080007BD0102E57D19EE00220F0BD302E75D0AF
:10209000402E50D173E0602E4ED0702E1CD0012205
:1020A0001203B31A13D0934245D10268CF688E68E9
:1020B0004B689168A1433C021C4334430C43946039
:1020C00000688168012292031143816092E00068F8
:1020D0008168C908C900F8E70268CF688E684B6854
:1020E0009168A1433C021C4334430C439460026852
:1020F000906877218843084390607BE004684E68CD
:10210000CF68216AB646BC46266A76087600266203
:10211000A669F027BE4367463F0137430A26B1430D
:1021200076463143A761216204685021A06890433C
:1021300008431843A0605DE04E680468B646CE6868
:10214000216A1027B9432162A169276A3603BC4678
:102150000F273F03B9430E436746A0218F437146C3
:1021600009013943A66121620168602488689043AF
:102170002043184388603DE02DE01EE033E0046812
:102180004E68CF68216AB646BC46266A7608760055
:102190002662A669F027BE4367463F0137430A26F9
:1021A000B14376463143A7612162016840248868C3
:1021B00090432043184388601CE00168886890437E
:1021C0001843886016E00168102488689043204313
:1021D000184388600EE001682024886890432043FB
:1021E0001843886006E004683021A06890430843E3
:1021F0001843A0600120687700202877F0BD000018
:1022000030B587B0002100910191029103910491B2
:1022100000681749884228D116484269012189047B
:102220000A43426142690A400592426949100A43E1
:1022300042614069022508400590072040030324BD
:102240000090019502956946049503940A48FFF7AA
:102250003FF9072000020090092001950295694688
:1022600004950394C006FFF733F907B030BD0000B2
:10227000002C01400010024000040048F8B506465A
:1022800004462036307F0D4601280CD001203077DF
:1022900002207077002A08D0042A19D0082A2CD0EE
:1022A0000C2A6ED16EE00220F8BD206802F05AFAC6
:1022B00020688169082211438161206881690422B4
:1022C00091438161206881692A691143816194E0A9
:1022D000206802F085FA206881690122D202114348
:1022E0008161206881695210914381612068816910
:1022F0002A691202114381617FE02068016AFF228E
:10230000013291430162076A4268C16970239943AF
:1023100089082B6889000B43012149028F43A96872
:1023200009023943374FB84208D1C714B943EF689F
:102330003F020F4301158F43394605E0324FB84243
:1023400002D0324FB84208D103273F03BA436F6926
:102350003F011743AA6912013A434260C3616A68A8
:10236000C26301622068C16908221143C16120680B
:10237000C16904229143C1612068C1692A6911437E
:10238000C1613AE02068026A012109038A430262BE
:10239000026A4168C76973231B029F432B681B02B3
:1023A0003B4301277F03BA43AF683F031743154AF6
:1023B000904205D0144A904202D0144A904205D16E
:1023C0000122920391436A69920111434160C36102
:1023D0006968016407622068C1690122D202114361
:1023E000C1612068C269012189028A43C2612068F3
:1023F000C1692A6912021143C1610120707700206E
:102400003077F8BD002C01400044014000480140F5
:10241000002801D10120704770B5054604462035DB
:10242000687F002803D12877204600F00BF80220AF
:102430006877211D206802F051F90120687700209B
:1024400070BD000000B587B000210091019102919C
:102450000391049100680F49884218D10E4882699F
:10246000C1140A43826182690A4005924269C90126
:102470000A4342614069084005908811009002209B
:1024800001900290049069460448FFF721F807B0D4
:1024900000BD0000002C0140001002400004004874
:1024A000002801D10120704770B50546044660350B
:1024B000687A002803D12872204600F027F82420EB
:1024C000687220680168490849000160204602F0EE
:1024D00039FC012818D0606A002802D0204602F09A
:1024E00097FB206841680922D2029143416020682D
:1024F00081682A229143816020680168012211438A
:102500000160204602F0EAFB70BD000000B587B014
:1025100000210091019102910391049100680E49FC
:10252000884217D10D488269012189030A438261DB
:1025300082690A400592426909010A434261406981
:1025400008400590C0200090022001906946044890
:10255000FEF7BEFF07B000BD00380140001002408A
:102560000004004802F0AAF9154C0825206AC06949
:10257000C043000706D4134802F0D7FC206A056266
:1025800002F0B2FF206AC069C043000602D40D48C1
:1025900002F064FD206AC169C9438906E6D4808CD3
:1025A000C1B2084802F0CAFC0088012804D0022801
:1025B000DCD102F099FFD9E702F090FFD6E70000E6
:1025C000800500208004002010B50446406801F01A
:1025D00016FFA1680882000C488210BD10B5006883
:1025E000012101F073FF10BD002839D010B5044659
:1025F000007E012833D1217B0020012904D002294B
:1026000010D0032929D11EE0A168203108710121D1
:10261000606801F023FF0E21E28A615E606801F0CC
:1026200097FE0CE0A168203108710021606801F07C
:1026300015FF1021E28A615E606801F089FE0028C2
:102640000BD002200AE0A168012020310871A068A7
:10265000618A0182A18A4182F3E70320207610BDBE
:10266000704701230373C181C282037643767047AA
:10267000022303730182C282012101760021417687
:10268000704710B5006801F0F1FE10BD10B540684C
:1026900001F0CCFE01F0C2FD10BD407E70478368A2
:1026A00019880846598880B209040843704783682E
:1026B00099880846D98880B209040843704783681E
:1026C00099890846D98980B209040843704783680C
:1026D000198A0846598A80B2090408437047027B68
:1026E0000021012A01D10E21415E0846704710B534
:1026F000406801F08DFE10BD10B5006801F0DFFEEE
:1027000010BD81681E20085E70478368598B08469B
:10271000998B80B20904084370478368D98A0846B8
:10272000198B80B2090408437047836042600160DE
:1027300000210173C1810182C182017670470322A9
:1027400002734182091481820121017600214176C0
:1027500070478268518280688182704710B5044654
:102760000068032101F0B2FE002801D0012121768A
:1027700010BD10B50068072101F0A8FE10BD10B50E
:10278000406801F06FFE10BD01B2120C12048BB252
:102790001A430D4B001459435843091808180B49A4
:1027A0004042C013CB43884203DC1946884200DB19
:1027B00001B290B20A041043994203D1044980B295
:1027C0000904084370470000E6490000FF7F00004D
:1027D0000180FFFFF8B50546084600F053F829B21E
:1027E0002A140B4606B20714154671437D43481B55
:1027F0001449C5138D4201DD084603E012488542A5
:1028000000DB28B2250C2D0484B225430E4CA042D7
:1028100003D12D0C0D482D0405437B4372439818BA
:10282000C013884204DCA04201DA214600E001B274
:10283000A8B20A041043A14203D1054980B2090499
:102840000843F8BDFF7F00000080FFFF018000000B
:102850000180FFFF70B50546084600F013F80246F8
:1028600029B203B228140E46121405465E4355439E
:10287000751951435843401AED13C113A8B2090406
:10288000084370BD0122D203821812040323920D63
:102890001B021A40012330B4DB03C11889040C0E5B
:1028A0006300FF252C1B1E496400002A1FD0FF3A3D
:1028B000521E29D0FF3A521E0ED0FF3A012A09D1EA
:1028C0000A5BC95A80B2120410434942000C00044A
:1028D00089B2084330BC7047CA5A80B21204095BFF
:1028E0001043000C000489B230BC08437047CA5A38
:1028F000095B524280B2120410434942000C0004AA
:1029000089B230BC084370470A5B80B2524212045D
:10291000C95A1043000C000489B230BC0843704708
:10292000FE640008FFB581B004460A9F0B980D466F
:10293000A161A8210851094816460090084B094A90
:1029400021462846FEF70FF8E66104986762206288
:10295000204600F053FB05B0F0BD000069290008D7
:1029600071290008F52F000810B500F047FB10BDD5
:10297000F0B50E4605468DB00020144669461F4648
:102980000871720908D000212846521E02F0BDFDD0
:10299000002812D0F606F60E132E6FD230007844BF
:1029A000007900188744820DA3B26A6AB1B0AFAE55
:1029B000ADACABAA6A6A6A6A82000B2069460872EB
:1029C00002E3217805206A46107247297DD02EDC6B
:1029D0000F296FD00EDC0F2976D20A007A441279C3
:1029E000921897445D81815D816767676767676754
:1029F0006767670017295DD00CDC08461038072888
:102A000072D202007A441279921897445E5E6D6D1C
:102A1000535353001D294AD004DC18294AD01C29DD
:102A200062D144E0412945D046295DD14DE0652978
:102A300040D01EDC57293DD00EDC54293AD006DCAC
:102A4000482942D04F2935D053294DD132E055295C
:102A500030D0562948D12DE05B2936D004DC5829E6
:102A600028D0592940D125E0612923D064293BD1C0
:102A700020E008467438152836D201E0A1E224E0AF
:102A800002007A441279921897440A1F1F1F1F1FD1
:102A90002E2E2E1F1F2E2E2E2E2E2E2E14141400F0
:102AA0006278284602F031FD694608718CE2012007
:102AB000114607E0A278607812028218284602F0D8
:102AC00024FD694608717FE20EE0A2786078120268
:102AD0008018E278237912041B06D218821828463F
:102AE00002F013FD6946EDE70220694672E12178A4
:102AF00003206A4610728B2909D209E0B9E141E24C
:102B00002AE218E2F3E1CAE19EE16FE164E15FE1EC
:102B1000880000BF78444068874400003A02000003
:102B20007E0200003A0200003A0200007E0200002D
:102B30005C0200005C0200005C0200005C0200001D
:102B40005C0200005C0200005C0200005C0200000D
:102B50005C0200005C0200005C0200005C020000FD
:102B60005C0200005C0200005C0200005C020000ED
:102B70005C0200005C0200005C0200005C020000DD
:102B80005C0200005C0200005C020000AC0400007B
:102B9000AC0400007E0200005C0200005C02000049
:102BA0005C0200003A020000B4020000B40200001F
:102BB000B4020000B4020000B4020000B40200003D
:102BC000B4020000B4020000B4020000B40200002D
:102BD000B4020000B4020000B4020000B40200001D
:102BE000B4020000B4020000B4020000B40200000D
:102BF000B4020000B4020000B4020000B4020000FD
:102C0000B4020000B4020000B4020000B4020000EC
:102C1000B4020000B4020000B4020000B4020000DC
:102C20005C020000B4020000B4020000B402000024
:102C3000B40200007E0200007E0200007E0200005E
:102C40005C0200005C0200005C0200005C0200000C
:102C50003A0200007E0200005C0200005C020000FC
:102C60005C0200005C0200005C0200005C020000EC
:102C70005C0200005C0200005C0200005C020000DC
:102C80005C0200003A0200007E020000B402000074
:102C90005C0200005C0200005C0200005C020000BC
:102CA0005C020000B4020000B40200005C020000FC
:102CB0005C0200003A0200003A0200007E020000BE
:102CC0007E0200007E0200007E0200007E02000004
:102CD0003A0200005C0200005C0200007E0200007C
:102CE000B40200005C0200005C0200003A02000036
:102CF0007E0200007E0200007E0200007E020000D4
:102D00007E0200007E0200007E0200007E020000C3
:102D10007E0200007E0200007E0200003A020000F7
:102D2000B40200003A020000A0020000A00200006D
:102D3000A00200005C0200005C0200005C020000D7
:102D4000B40200002C0200000223EC69A74AF02123
:102D5000A869A04738E101AA284602F009FA0090C4
:102D60006846007900286ED00123EC696A46F0219C
:102D7000A869A0470DB0F0BD01AA284602F0F8F9F5
:102D800000906846007900285DD00223EC696A460D
:102D9000F021A869A0470DB0F0BD01AA284602F0B5
:102DA000E7F900906846007900284CD00423EC69CC
:102DB0006A46F021A869A0470DB0F0BD01AA2846D7
:102DC00002F0D6F90090684600790028EED105E1BE
:102DD000032011460872F7E0217807206A46107236
:102DE000284602F06CF96A461071EDE0002004AA52
:102DF00001461154401CC0B22028FAD300202946B5
:102E0000803105E01418401CC0B2E3701D2803D2C5
:102E10008B6A1B5C092BF5D18B6A421D9C5C6A4650
:102E20001474C21D9B5C6A465374896A0930085C3D
:102E300090742023EC6904AAF021A869A04701201E
:102E40006A461071C4E0C9E061792079090240182E
:102E500082B26178207809024018A178E3780904E9
:102E60001B06C9184118284602F063F96946087123
:102E7000AAE0617920790902401882B2617820784D
:102E800009024018A178E37809041B06C918401804
:102E900001B2284602F060F96946087194E006A87C
:102EA0000090217807AB03AA284602F0BFFA6846D3
:102EB0001C22825E3C2050430A21FDF78EFB014616
:102EC000684601740A1242740A148274090EC174AD
:102ED000018B01750912417581898175090AC175D6
:102EE0000823EC6904AAF021A869A0476CE0217AC4
:102EF000E0790902401886B2A1786078090240188A
:102F0000E178227909041206891840180A214843F9
:102F100027783C21FDF761FB03B2A17960790902B2
:102F2000401800B2009032463946284602F08DFB28
:102F30006946087148E0617820780902401801B2BA
:102F4000E278A0781202801802B2284602F0D2FA83
:102F50000120694608713BE06846069407770C211A
:102F60000172234906A802F000F9010068460171C8
:102F70002AD01F48EC6903790268F021A869A047AC
:102F80000DB0F0BD0020294604AA803104E013549E
:102F9000401CC0B220280BD28B6A1B5C002BF6D1E0
:102FA000202805D200211154401CC0B22028FAD399
:102FB0002023EC69F021A869A04701206946087127
:102FC00006E001206946087268460079002805D0AD
:102FD00000231A46F021EC69A86904E00123EC699A
:102FE00002AAFF21A869A0470DB0F0BD1A06002073
:102FF0000C00002010B500F001F810BD10B504461B
:10300000616A806988478021AC200155216AA069E6
:10301000884710BD10B502480068FFF76DFB10BD72
:103020000400002006480078002807D010B500F002
:1030300009F801F07BFD02F031FA10BD7047000085
:10304000BC05002010B50D4C2078012815D16088F2
:10305000002802D06088401E02E001F0BBFC012085
:103060006080A088002802D0A088401EA080E08850
:10307000002802D0E088401EE08010BDBC05002082
:1030800010B502480068FFF769FB10BD040000207E
:1030900010B502480068FFF76CFB10BD040000206B
:1030A000F3B581B04A4801F00CFA4A4E00244B496E
:1030B0003470494808604B4849490160084600F0AF
:1030C000B1FC494800F0CAF9484847490160494DF8
:1030D000474828604848FDF723FD281D0168464AF7
:1030E000286801F0ABF9454800F0B8F9444800F011
:1030F000B5F94448414901604348414901604348AA
:10310000F06101F080F8434941480860FF30013028
:10311000F169414FC7600161404800F06FF94048D4
:103120003E49016040493F48086001F009F800202D
:10313000FDF738FC3D4901200871286801F05FF96E
:103140003882000C7882286801F059F90014B8829E
:10315000384F37483860304B1D492A68FFF7E5FA89
:10316000286801F05BF93B68014600221846FFF72A
:1031700078FA019839680160281D01682E480160BD
:1031800020490968416020490968C4608160154987
:10319000096844610161C461174904628161296859
:1031A00041620B49816214390968C162F169446363
:1031B0008463016317490968046444648464C464D3
:1031C0000465C163029908600120307003B0F0BD4E
:1031D000F0050020BC050020CC030020E8050020FD
:1031E000E0010020E005002028010020CC0500209F
:1031F000AC010020C80500205C0200205401002022
:1032000080010020D0050020D40500204C030020C0
:1032100014000020E4050020D4070020240300202F
:10322000DC05002074030020EC050020F4070020DA
:10323000FC070020C40500201808002030B4C31D7E
:10324000F9331A880024520081521A885A80521C7D
:1032500092B21A80802A01D300221A8000225500DF
:10326000455F521C2C1992B2802AF8D3E017400E09
:103270000019C011988030BC0846704700210A46EA
:103280004B00491C89B2C2528029F9D3FF3001306A
:10329000028042807047FF210531085E70470000C0
:1032A00008B5FEF793FB7D210901FDF780F9FEF7D4
:1032B000B1FD07490748FFF7F3FE03F057F806484A
:1032C000034B00901A1F0121044802F0D7F908BDF2
:1032D0000800002004000020DC640008000000203A
:1032E000F7B582B00446002004990546491E0090B7
:1032F00000291ADD049A0123201FD207DB07DA42D6
:1033000002D00425455F001D0423C35E002249103E
:1033100009D0EB1806891DB20C23C35E9219083040
:1033200012B2491EF5D1A81805B20498401E03D464
:103330008000205A401905B204980026002823DD99
:10334000B700E15F8C4639198978CA000399531890
:1033500019889A880846598880B209040843D98890
:1033600093B209041943624602F078FAE25F2946F3
:103370005043FDF732F90099761C401800B20090D6
:10338000049876B28642DBDB009805B0F0BD000001
:1033900010B504460078002801D0002013E0262054
:1033A000005D00F0ABFD09490246884208D0208B41
:1033B000238A0146401E43439818FDF7F8F82082FF
:1033C000204600F02EF8E08280B210BDFFFF000022
:1033D0000021018270470178002902D0808A00B262
:1033E0007047018A026A8A1A1E21415E808C51430D
:1033F000CA17120C511809140818F0E710B5044642
:103400000078002804D00020E082608A208210BD6D
:10341000201D00F04DFE262108552046FFF7D8FF5D
:1034200010BD018A428B914201D908207047828BDE
:10343000914201D200207047C08A70470146222085
:10344000085E704701460620085E7047408B704753
:1034500001460420085E7047008B70470188818018
:103460004188C180018C4184002181608162704764
:103470008160704741847047C18070478180704788
:10348000F0B40422825E062314251624C35E0026AF
:10349000455F045F4A43002B09D087684B43F91806
:1034A00008D5002F0BDD002B09DD144907E00021B2
:1034B00081600DE0002F02DA002B00DA1049C368AA
:1034C0008B4202DB03698B4201DD836000E0816097
:1034D0008168877F0B463B41077F3A419A18AA4291
:1034E00002DDAE1A2A4603E0A24201DAA61A2246FB
:1034F00089198160F0BC10B270470000FFFFFF7FA8
:103500000100008070B5C51DF935EA68044693894D
:103510001846D38980B21B041843D38A128B99B200
:103520001204114302B20BB2001409145A43484367
:103530001018C117090C08180614286902F002F9BE
:10354000A96848434B21C900FDF747F801463046BA
:103550004843062148430A21FDF73FF8C117090CEB
:10356000081801142046FFF769FE70BDC1690847BD
:1035700070B50446002640340546002902D00129D2
:1035800008D015E0284600F0DEF8608AA080002808
:1035900008D00DE0A088002809D0401E0004000CCF
:1035A000A08005D1296928468847012600E0012628
:1035B000304670BD42681047F0B404460AB2403449
:1035C000268A09147143038E49005A4349428B18D5
:1035D000DD0FEB188A1AD50FAA1805465B1052109A
:1035E0002035B608002B43DA002A14DA0421A97624
:1035F000991ACD17AD0B691889147518D117C90B15
:10360000891849144A19D917C90BC91849146B1AD2
:103610008387C58759E0002914DC0323AB768B1A16
:10362000DD17AD0BEB189B14F518D317DB0B9A18AD
:10363000CB17DB0B5214591852194914531A8387AC
:10364000C28713E00222AA765A1AD517AD0BAA1820
:103650009214B518DA17D20BD2185214AB1ACA1733
:10366000D20B51184914CA188287C387258043E0BA
:10367000002A14DB0121A976991ACD17AD0B691820
:1036800089147518D117C90B891849144A19D91703
:10369000C90BC918491482876B1AC5872BE000290A
:1036A00015DC0522AA765A1AD517AD0BAA18921462
:1036B000B518DA17D20BD2185214AB1ACA17D20B9C
:1036C000511849148587CA18C387228014E0002343
:1036D000AB768B1ADD17AD0BEB189B14F518D317CF
:1036E000DB0B9A18CB175214DB0B521959184914DB
:1036F0008587531AC2872380A9B2418692B28286F7
:103700009BB2C386E589012D1AD10825655F002D7E
:10371000A58A01DD491900E0491B41860A21615E45
:103720000029A18A01DD511800E0511A81860C217F
:10373000615E0029A18A01DD591800E0591AC1868D
:103740008169F0BC084781680847C168084741693A
:1037500008470000F0B5002683B0C665066605463A
:10376000454F60354666AE74396A04464348814326
:1037700039624349616043490420A161E87401460C
:103780002046203002908176204600F073FAA06F28
:1037900023466030C27A214672333831384601936D
:1037A000009102F071FE204600F014FA3649616083
:1037B000EE7402988676AE74204600F05BFAA06F35
:1037C000019B6030C27A3846009902F05DFE2046C7
:1037D00000F000FA029804218176E06D0109E165AC
:1037E000206E01092166606E0109616627496160EA
:1037F00027492848A1618179274808180268274984
:103800008B79082199408A43026002688A430260EA
:1038100002688A43026020464030818D7963818D41
:10382000B963808DF8631B4801781B48081802684B
:103830001A490B78082199400A430260154881789B
:1038400015480818026815498B78082199400A43E1
:103850000260104801791048081802680F490B7976
:10386000082199400A430260386A044908433862D3
:10387000AE7503B0F0BD0000002C014055050000FE
:1038800099390008613B0008E5390008A1380008B3
:103890007F3B00089F670008182C0140A6670008BE
:1038A000F0B43A4B5A687024A2435A603A22384B1B
:1038B000165CDA680424A243DA60B2001446836F0F
:1038C00034341C5924884C329A581588314A534252
:1038D000062E4ED237007F443F79FF19BF44142F84
:1038E0002F020214C66D341B9C4201DA0B8004E0E7
:1038F000944201DD0A8000E00C80046E641B9C424F
:1039000034DB94422EDC33E0066E341B9C4201DA39
:103910004B8004E0944201DD4A8000E04C80446E1C
:10392000641B02254D5F2C196442944201DD0A801C
:103930001FE09C4201DA0B801BE00C8019E0C66D91
:10394000341B9C4201DA0B8004E0944201DD0A80C2
:1039500000E00C80446E641B00254D5F2C1964420E
:10396000944201DD4A8004E09C4201DA4B8000E091
:103970004C800A88403002814A8842810A884988FE
:10398000511849428181F0BC70470000002C014071
:1039900000240140FF7F000070B4114B02466032EA
:1039A000D47C5D687026B5435D60937C102B12D289
:1039B000A3001C46856F34342C592488C56D6419C6
:1039C000C465846F4C33E3581B88046E1B1903666F
:1039D000907C401C907400200880488070BC704728
:1039E000002C014070B40E4B02466032D47C5D68FE
:1039F0007026B5435D6000233A252B54957C102D2D
:103A00000AD2A400856F4C342C592488456E641961
:103A10004466907C401C90740B804B8070BC704757
:103A2000002C0140F8B43B494B68042293434B609F
:103A30000A604B68082293434B600A60364A136859
:103A40000124E404234313608023344CDB432361CB
:103A5000E36880252B43E360034640339D8D6D1E54
:103A6000656201249569A405254395619269224008
:103A700000922B4ACD14D4682C43D4608A68172452
:103A8000A2434C0522438A608A68D243FCD58A68E7
:103A9000D2435207F8D58A68D243D206F4D58A6851
:103AA000D2439207F0D58A681E4C2240521C8A608D
:103AB0000A68D243D207FBD11C4904460E781C4D3C
:103AC000194A6E3474510D781B4E1A4CAC510324B4
:103AD0000E78151D77593F0C3F042743775109781D
:103AE00055580124254355500C494A687025AA436E
:103AF0004A60124D0A6A2A430A620A158266002247
:103B0000603042750275C275DA810868204308602A
:103B1000F8BC70470024014000100240002C014016
:103B200000580140E8FFFF7F000002409A6700084C
:103B30000C000240402401400800024055050000EE
:103B400060300021437D0A46012B01D102214275DC
:103B5000037D012B02D140231943027508467047AB
:103B600010B501218902816673210A5C3A210A5449
:103B70006C21095A491E89B200F064F910BDF8B5EC
:103B800002464032818F978DC68F7B1A9CB2836F1D
:103B90004033DD8CAC4206D904233A210B54918D7D
:103BA000491E89B213E08E1BB6B26400B44202D241
:103BB0001A8D891A0AE0691889B28F4207D8012341
:103BC000DB028366928D5200511A491E89B200F0C1
:103BD00039F9F8BDF0B42249CA6852085200CA60E7
:103BE000002242231A544B6C0124E403A3434B6488
:103BF00004466034A37D012B0FD0836F7225ED5CEA
:103C0000022D0AD15D681B69AB62836F9D685B6999
:103C1000AB62836FD8689B6983621348114B00784D
:103C20001D580226B5431D5010488568104F3D4071
:103C300010358560C5686D086D00C5605E60042341
:103C40000360C3683725AD01AB43C360E275321F23
:103C50000A610869C043C007FBD10A61F0BC704724
:103C6000002C0140000002409A6700080024014037
:103C7000E8FFFF7FF0B40246002340329370012337
:103C800077242354938D36495B084B63938D5B08EF
:103C90008B63938D5B08CB63928D521F0A64012462
:103CA000E4430C610A69D243D207FBD10C614A6C30
:103CB00001239B021A434A644A6C5B011A434A641B
:103CC000826F72239B5C022B0ED10D6A254BAB4396
:103CD0005368126939D09A62826F936852699A6206
:103CE000836FDA689B699362806F1F4B6030807AC4
:103CF0005A69D208D20002435A611D4A1B481578FE
:103D0000465976087600465102261578071DEF5968
:103D10003F0C3F043743061DAF51167887590125E4
:103D20002F43875104261E60DF68BF08BF002F4362
:103D3000DF604660127883580226334383500C615B
:103D4000C8682843C860F0BC70479A61836F9A685E
:103D50005B699361826FD36892699A61C4E70000DE
:103D6000002C0140550500000024014000000240E5
:103D70009A67000870B4836E1C49CA680324A402C1
:103D8000A2431A43CA60CA680B153724A401A24390
:103D90001A43CA60024620321546927E846FA218EA
:103DA0006032127B9400CA680426B2432243CA6080
:103DB000AA7E846F92001C32A2588A62826F4C697C
:103DC0006032927AE408E40014434C61084C626863
:103DD0007025AA432A4362608A68064C2240121D5D
:103DE0008A60836670BC4630704700000024014042
:103DF000002C0140E8FFFF7F0123422210491354A9
:103E0000DA1E0A6100224A638A63CA630A69D243DE
:103E1000D207FBD14A6C0123DB031A434A64816F4A
:103E20007222525C022A0AD14A6809699161826F42
:103E3000916852698A61816FC86889698161704738
:103E4000002C01400246806F0368508E5863908EAC
:103E50009863D08ED863196458684006400F00D02C
:103E60000120118F012902D1012000211187704703
:103E70001D480621007802464A431C49895C0129F5
:103E800031D1F0B41A4B042119608100194843580C
:103E90001B68DC68A408A400DC6043581B68DC686D
:103EA0003725AD01AC43DC6044582368A4685D69E4
:103EB000ED08ED0025435D6143581D791E6801231F
:103EC000AC061F46AF403C436403640BB4624058E9
:103ED00000688168084C2140091D81600348101862
:103EE0004370F0BC70477047F60500209C08002026
:103EF000002401406C080020E8FFFF7FF0B4062298
:103F000007465743444A0021D55D13460424FB1855
:103F1000002D24D106254D43565D012E0DD1AE183E
:103F20007579854208D95D71197106214D4370710B
:103F3000A9180871042100E00C46491CC9B20429E3
:103F400012D0E7D30121D1550021597033490625FC
:103F50000C786C43A2185278012A00D008703049BE
:103F6000C97D002911D053E0042C0BD006216143F8
:103F70008D18697959711C7106246143687189181B
:103F80000871DFE725490870DCE7264A80001158F0
:103F90000968CC68A408A400CC6011580968CC68F2
:103FA0003725AD01AC43CC6014582168A4684D6935
:103FB000ED08ED0025434D6111580D790E68AC06F2
:103FC0000121A9400C436103490BB162115804243B
:103FD00009680C60115809688C68134D2C40241D29
:103FE0008C60105800680168C9434907FBD4006C15
:103FF00058800A4801788900515801220968CC6824
:10400000A408A4001443CC605979017002205870B0
:104010005888F0BC704700009C080020F60500207E
:10402000400200206C080020E8FFFF7F70B50C4CB8
:10403000A078012812D16078FFF760FFA0800146C8
:104040000220A07065780748EA008358002B05D04D
:104050000026A670101842682846984770BD0000D8
:10406000F60500207C08002010B40E4906200A78CE
:104070000D4B5043C0184378012B0ED193000B4ACF
:10408000D25813681B6C43800223437012680123CB
:10409000D468A408A4001C43D4604079087010BC04
:1040A00070470000F60500209C0800206C080020E6
:1040B00070B40246FF201E4B00218C001C59002CBE
:1040C00032D026791579AE4205D124681568AC4204
:1040D00001D108460421491CC9B20429EDD30428A2
:1040E00020D281005A500023124CC1006350116845
:1040F0008C68E443E4070ED08C681725AC43ED07C9
:104100002C438C6011688A68D243FCD58A680A4CBB
:104110002240521C8A600621084A414353548918A0
:104120004871087170BC70470428D4D90846D2E79A
:104130006C0800207C080020E8FFFF7F9C0800201E
:1041400010B5002181604160C160016101214161C0
:104150001830FCF78DF910BDF8B50546044620353A
:10416000A879FFF7CBFE1449074688421ED069792B
:10417000206A490047520022268B1046002E07D99C
:10418000216A4300CB5A401C9A18C0B28642F8D824
:1041900031461046FCF70BFAE080A7806879761E5E
:1041A000B04201DA401C00E000206871204600F0B7
:1041B00005F82081F8BD0000FFFF0000C188428B98
:1041C000914201D902207047808B814201D20420A4
:1041D00070470020704710B4418B828B038B891885
:1041E0004A080021002B07D94C00036A491C1A53C6
:1041F000038B89B28B42F7D88280C28000212030A5
:10420000417110BC704710B504460C30FFF750FFE9
:10421000262108552046FFF7DEFF10BD01460C2081
:10422000085E704701460420085E70470146102072
:10423000085E704710B50C21415ECA03521A142162
:10424000415E1046FCF7C9F900B210BD70B40023FE
:10425000CE5E0125C4780278002E02DA714289B25E
:1042600000E00988868A8E4200D20123C68A8E42E7
:1042700000D901231221415E002902DA494289B2A4
:1042800000E0418A068B8E4201D3002B04D0A2426B
:1042900005D2521CD2B202E0A24200D20022A242B7
:1042A00000D100250270284670BC7047F8B501782F
:1042B0000546002907D06C68E868012805D9AA6975
:1042C0001419401E06E0AC68F6E7012803D168889F
:1042D00004040020E860174E012908D0E017000C04
:1042E00000190014AC6030800020305EF8BDE0178B
:1042F000000C001907146869FFF790FF0090381A46
:10430000718800B2411A09B2B181708001F0D4FB0A
:10431000B0803188081800B207493080884200DD3B
:104320003180F780009830813088708100046C60A3
:10433000A860D9E710060020EC2C000001780129C4
:1043400005D110B500690021FFF792F810BD704744
:10435000F8B504460078012617460D4600280DD012
:104360006068C117090C081800140090E08BA8427F
:1043700015DB2420205EA84211DC12E0204600F06C
:1043800057F80090E08CA84205DA2820205E00262D
:10439000A84204DC27E02820205EA84208DD002691
:1043A00021E0208CA84203DD2220205EA842F6DB1B
:1043B000002F10D06580A08B7D217843C900FCF7C9
:1043C000F6F8401CE0600099691A0A04014610469C
:1043D000FCF703F906E021782804012905D0A06044
:1043E0000020E060A0613046F8BD6060F8E710B5DD
:1043F00004464069FFF712FF0004606010BDC28DE3
:104400001146028E88B2110408437047C08B704772
:104410004068C117090C08180014704701462C2089
:10442000085E704701462420085E70474069704767
:104430008068C117090C08180014704742610161B7
:104440002A21095C0170818D09044160C18D090434
:10445000816000214180C16081617047017000214D
:10446000C16070470021C1608161704702780021FE
:104470000B2A04D109210170002181800121084605
:10448000704710B4448803780C4394434480828876
:104490000A4382800A2B07D0002C02D00A21017027
:1044A0000B4610BC18467047002CFAD10B21017046
:1044B0000B46F6E78188408800040843704700787F
:1044C00070470021017041808180704710B50278EB
:1044D0000024152A73D213007B441B79DB189F44F8
:1044E0000D142A2D4E5C6164676A6E6E0A1B2025CE
:1044F000383D4955440000296DD060E003296AD059
:10450000012968D00C2966D05DE0072963D00D2908
:1045100061D00E295FD052E00E295CD007295AD015
:104520004DE00F2957D0072955D048E0022952D035
:10453000072950D043E007294DD040E007294AD051
:10454000102948D0042946D0112944D0012942D04D
:1045500035E011293FD007293DD030E012293AD06B
:10456000072938D0142936D029E0122933D0072959
:1045700031D024E004292ED007292CD01FE01329A4
:1045800029D0072927D0052925D018E0042922D0D1
:10459000072920D005291ED011E006291BD00729A4
:1045A00019D00CE0072916D009E0082913D006E03D
:1045B000092910D003E000290DD00C290BD00329C4
:1045C00007D0012905D0072903D000228021FFF759
:1045D00058FF204610BD01240170FAE710B5084CC1
:1045E0002078022805D1FDF725F8FDF731FC0020E1
:1045F0002070C0B2401C2070FEF714FD10BD0000FA
:10460000FC05002013480168012211430160416844
:10461000114A114041600168104A1140016001686F
:10462000012292049143016041683F2212049143A8
:104630004160C16A09090901C162016BFF2214329C
:1046400091430163416B4908490041630021816046
:1046500070470000001002400CB8FF08FFFFF6FE94
:1046600010B5104CA06F00680169C943C90708D193
:10467000C168C943C90704D1891E01612046FFF7FB
:1046800079FBA06F00680169C943090609D4C168B4
:10469000C943090605D48021C94301610148FCF7DB
:1046A00024F910BDE001002010B50B4CE06A01694F
:1046B000C943C90704D1891E01612046FCF7C8FC23
:1046C000E06A0169C943890705D40221C943016130
:1046D0000148FCF735FB10BD5C020020F0B4026815
:1046E0001B4B0124A4071B4D984203D0A04201D0CC
:1046F000A84203D17026B2434E683243164E174F7C
:1047000098420AD0A04208D0A84206D0144CA04239
:1047100003D0B04201D0B84204D103242402A24302
:10472000CC6822438024A2434C69224302608A68F9
:10473000C2620A688262984203D0B04201D0B84295
:1047400001D10969016301214161F0BC704700009A
:10475000002C01400004004000440140004801409A
:1047600000200040F0B4026A520852000262056A5A
:10477000436882697024A24392080C689200144333
:10478000022295438A68144E2A43124DA84204D04F
:10479000B04202D0114FB84206D10827BA43CF68C1
:1047A0001743042297433A46A84204D0B04202D0AD
:1047B0000A4DA84206D103252D02AB434D691D4386
:1047C0008B692B4343608461496841630262F0BC9A
:1047D00070470000002C01400044014000480140A7
:1047E00070B4026A10239A430262046A43688269C1
:1047F00073252D02AA430D682D02154320229443F0
:104800008A6812012243114CA04208D11446CA689A
:104810008026B443120122434024A24305E00C4CFD
:10482000A04202D00B4CA04208D10324A402A3430F
:104830004C69A4001C438B699B0023434360856142
:1048400049688163026270BC70470000002C01401F
:10485000004401400048014070B4046A64086400E8
:1048600004628469056A0E4EB04206D00126B6077E
:10487000B04202D00B4EB04202D1A408A40000E026
:1048800001221443F02294431A07120E0A232243F2
:104890009D43194029438261016270BC704700004A
:1048A000002C0140000400400349002089880029B1
:1048B00000D1012070470000BC05002010B505485C
:1048C0000068FFF787F9002280210348FFF7D9FD30
:1048D00010BD0000E0050020F0050020F0B585B017
:1048E000002004903348FCF7D9F833480068FFF7FC
:1048F0009DFD0746FFF796FC019030486946006829
:10490000FEF758FEFFF7B4FA0098FDF73DFF02905E
:104910000199FDF75FFF0446294D1020285E21B262
:10492000411A28480068FEF7ABFD06461220285EB3
:104930002114411A24480068FEF7A2FDB1B2000418
:10494000014322480068FBF784FF06463846FFF71C
:104950006DFC30460199FDF77DFF07461748394643
:104960000068FEF729FE0390FFF77EFB2A46D682F9
:10497000300C10836846008828806846408868802C
:104980000298A8800298911C000CE880AC81200C51
:10499000E8810F83380C4883019828840398012804
:1049A00004D1002201210A48FFF76BFD049805B0ED
:1049B000F0BD00005C020020C8050020E0050020DA
:1049C000D4070020D0050020D4050020E8050020F1
:1049D000F005002038B50020694608804D48FCF7F6
:1049E00015F804464C480068FEF78CFD4B48FFF76D
:1049F00066FDC01E102817D20100794409794918B4
:104A00008F44073E43566579821212121212121316
:104A1000212D43480068FFF7EFF9142000F0E2F879
:104A200010213E48FFF752FD38BDFFF73DFF00283B
:104A3000FAD03B4800210068FEF79AFD1121374863
:104A4000FFF744FD38BD364801210068FEF790FDB0
:104A50000028F7D012213148FFF738FD38BD2D4826
:104A6000FCF73AF804212D48FFF730FD0028F5D077
:104A70000020FBF797FF2A480068FFF7FBF838BDD6
:104A800005212648FFF722FD38BD0020FBF7BCFFBB
:104A90000020FBF771FF06212048FFF717FD214892
:104AA0000068FFF7A4FC20480068FDF79DFD38BDB5
:104AB0001D480068FDF798FD0020FBF75DFF002C06
:104AC000F5D1002220211548FFF7DBFC38BD144842
:104AD0000068FFF77FF80020FBF764FF0E480068CE
:104AE000FEF7CCFB1920400100F082F808210B48AA
:104AF000FFF7ECFC38BD00F081F80028FAD009215E
:104B00000648FFF7E3FC38BD00210448FFF7DEFC50
:104B100038BD00005C020020E4050020F005002004
:104B2000E0050020C8050020C405002005480078E5
:104B3000012806D110B5002000F006F8FFF776FA3C
:104B400010BD7047BC050020F8B505461F48AE00F3
:104B5000006800901E488059FEF71AFC6A006946FA
:104B6000895A084007461B488059FEF7FFFC384326
:104B70000446002D07D11848C069FFF7EDFA6946D1
:104B8000098808400443E04382B206201349684381
:104B9000471821463846FFF774FC3846FFF78FFC6C
:104BA0000A2806D00B2803D10A488059FEF7CBFD0E
:104BB000F8BD08488059FEF7C6FD2846FBF7F2FE0F
:104BC00007488059FEF75AFBF8BD0000FC64000856
:104BD000DC050020E0050020BC050020F0050020D9
:104BE000E40500200149888070470000BC050020D2
:104BF0000149C88070470000BC050020034900201F
:104C0000C988002900D1012070470000BC050020A0
:104C100010B4818CC90707D001684A6801235B047E
:104C20009A43836A1A434A60818C890707D50168D1
:104C30004A6801231B049A43C36A1A434A60818C61
:104C4000490707D501684A6801239B049A43036B0F
:104C50001A434A60818C090707D501684A68012315
:104C6000DB039A43436B1A434A60818CC90607D51C
:104C70000268916801231B039943836B1943916078
:104C8000818C890607D501688A6801235B039A43F2
:104C9000C36B1A438A60818C490612D503685A682F
:104CA00001210905046C8A4322435A60026C8A423E
:104CB00007D10268516803235B059943436C19438C
:104CC0005160818C090607D501684A680123DB041D
:104CD000806C9A4302434A6010BC7047F8B50025C7
:104CE0000446C566FCF7A0FC0746144920688842C4
:104CF0001DD10068124E000709D501213B46002254
:104D000049052046009600F0CBF800280DD1206818
:104D1000006840070BD501213B460022890520464B
:104D2000009600F0BDF8002801D00320F8BD202037
:104D300060346072A07225720020F8BD0038014016
:104D4000FFFFFF01F8B504462369A268E6691A432C
:104D5000636910213343002026681A4333680546EF
:104D60004B4F3B401343336023685A680326360396
:104D7000B243E66832435A60236AA26926681A433E
:104D8000B3680B273F02BB431343B360414A126B26
:104D90009207920F06D0012A08D0022A08D0032ACF
:104DA00007D101E0002104E0022102E0042100E03B
:104DB00008210122E369D203934235D100290ED0A4
:104DC000022916D004291CD0082924D00125010964
:104DD00009010007400F08432168C8602DE0FCF777
:104DE000FBFD616840004A088018FBF7E0FB80B2D9
:104DF000EDE76168284A48088018FBF7D8FB80B2C5
:104E0000E5E7FCF7F9FD616840004A088018FBF708
:104E1000CEFB80B2DBE761680122480812048018EB
:104E2000FBF7C5FB80B2D2E7002908D0022911D0D8
:104E3000042919D0082922D001252846F8BDFCF7FD
:104E4000CBFD61684A088018FBF7B1FB216880B28E
:104E5000C860F2E76168114A48088018FBF7A7FBB1
:104E6000216880B2C860E8E7FCF7C6FD61684A08BF
:104E70008018FBF79CFB216880B2C860DDE76168A1
:104E800048088018FBF793FB216880B2C860D4E71C
:104E9000F369FFFF001002400024F40000127A00C2
:104EA000FFB50446006881B00D460A9EC1691746E9
:104EB0002846884321D00020B84228D1701C1ED03B
:104EC000002E06D0FCF7B0FB01460498081AB04249
:104ED00015D920680168FF22A13291430160206842
:104EE0008168490849008160202060346072A072A6
:104EF00000202072032005B0F0BD0120DCE720680F
:104F0000C1692846884305D00020B842D6D0002089
:104F100005B0F0BD0120F8E70021FF300130017736
:104F2000704710B5FBF70EFD10BD08B508216A46A5
:104F300011700123FF2100F065F808BDF8B5C41D0C
:104F4000F934227F234E0746002A41D0627F05466E
:104F50008035C9B2002A0BD0012A0FD0AB7E993020
:104F60009B1C9A4213D21154607F401C60772FE043
:104F70006976388A7882184E012006E0A9760220E8
:104F80006077A87E802823D30020607720E0E17638
:104F900000217982216A114E0A6820239A430A600F
:104FA00000212177FBF7B6FCE17E884207D13A4623
:104FB000BC68AB7E697E9B323868A04708E00A2057
:104FC0006946087001236A46FF21384600F01AF846
:104FD0003046F8BDAE670008B0670008B267000849
:104FE000FF300130017F002901D0012070470021EE
:104FF000417701210177006A016820221143016095
:105000000220704770B505468035EC7D002C01D03C
:10501000012070BD01750446591E163406464375BD
:10502000C9B2002B08D0137823700B46491E521CBE
:10503000641CC9B2002BF6D130461430FBF76AFC71
:10504000A875002028760120FF36E8750136306A01
:105050000168802211430160022070BD30B4034614
:105060008033DA7D0146002A1CD01A7E002A09D03E
:10507000012A09D04C7DA41CA24207D20C4614344C
:10508000125D04E00A7D02E04A7D00E09A7DC81DC1
:10509000F930046A22854C7D1A7EA41CA24203D2F8
:1050A000521C1A7630BC7047006A02688024A24302
:1050B00002600020D8750868496830BC084770B5A0
:1050C0008268007D0124800015580F292ED2080027
:1050D0007844007900188744291915072A2A101DD9
:1050E00021252929292915002846FDF705FB062831
:1050F0001DD12846FDF743FB19E02846FDF7FCFAD1
:10510000002803D02846FDF734FB10E02846FDF7C1
:1051100025FB0CE02846FDF7B4FA08E02846FDF729
:105120005DFA04E02846FDF74FFA00E0002420462F
:1051300070BD70B515468268007D80001458084621
:105140000A2148433C21FBF748FA01B22A4620468F
:10515000FDF787FA012070BD10B58368007D8000DF
:105160001858FDF785FA012010BD00207047000097
:1051700070B50446C368007DA56880001B582D5893
:105180000020002A01D001261670232971D018DCD6
:10519000232944D20E007E443679B619B7444448D8
:1051A0004C8050595D617B9EA1A3A5AAAEB23F3F42
:1051B0003F3F3F3F3F3F3F656AB63F3F6EFFF43F93
:1051C000F3002F2970D00DDC24390B2927D20B00D6
:1051D0007B441B79DB189F44FFEDECE2EFEBEAE93F
:1051E000E8E7E6006E2971D00CDC40296CD004DCC5
:1051F00030296AD03F2912D1BCE0412975D05B2902
:105200000DD152E0874C722943D004DC6F2961D064
:10521000702904D13BE073293BD0812903D0002AB7
:1052200001D00021117070BD204600F020F970BD42
:10523000986AFFF73FF970BD986AFFF740F970BDB3
:105240002846FDF754FA3C2148430A21FBF7C5F9EB
:1052500070BD1868FEF7FCF870BD1868FEF7F2F82C
:1052600070BD1868FEF7EAF870BD186B00F06AFAB6
:1052700070BDACE0D86AFEF7AEF870BD2846FDF709
:1052800005FA3C2148430A21FBF7A7F970BD66489F
:1052900070BD204670BD2846FDF719FA00B270BDFA
:1052A0002846FDF7FAF970BD34E02846FDF7F5F918
:1052B0000128C5D12846FDF712FA3C2148430A21AE
:1052C000FBF78BF970BD01E060E03BE01868FEF78A
:1052D000C3F870BD1868FEF7B9F870BD58680AE0E9
:1052E00003E058680BE058680DE02846FDF7EFF939
:1052F000001470BD9868FEF7ABF870BD9868FEF7B3
:10530000A1F870BD9868FEF799F870BDD86BFDF7ED
:10531000C2FF70BD227D216992008A580021140FBE
:10532000022C01D0012C00D199691201120F022A1E
:1053300001D0012A00D1D9690029EAD00846FEF738
:1053400071FF70BD227D216992008A580021140FDF
:10535000022C01D0012C00D199691201120F022AEE
:1053600001D0012A00D1D9690029EAD00846FEF708
:1053700061FF70BD586AFFF749F83C2148430A2194
:10538000FBF715F970BD1BE016E008E0586AFFF75F
:1053900049F83C2148430A21FBF71FF970BD284614
:1053A000FDF78DF916E038E033E02EE029E024E047
:1053B0001FE01AE015E00FE02846FDF780F90EE047
:1053C00059690029EAD00846FBF74CF870BD284619
:1053D000FDF765F900B270BD2846FDF760F90014CD
:1053E00070BD2846FDF763F9F4E72846FDF75FF93D
:1053F000F5E72846FDF76BF9ECE72846FDF767F976
:10540000EDE72846FDF789F9E4E72846FDF785F939
:10541000E5E72846FDF779F9DCE72846FDF775F959
:10542000DDE700001A2700007A84A634FFB5C168C2
:10543000007D81B080000858012544690A9F1E46FE
:10544000002C10D020460299FAF7FBFF0399088040
:1054500020460299FAF7FAFF308020460299FAF7BF
:10546000FBFF388000E00025284605B0F0BD007D38
:10547000704710B5FDF7CEFD002802D0FDF708FEFD
:1054800010BDFDF7FDFD10BD10B4019C0171C3609E
:10549000002182600175046110BC70470948418891
:1054A000002902D04188491E41808188012902D902
:1054B0008188491E81800188012902D90188491EFD
:1054C0000180704700060020037901228B4201D839
:1054D000002200E0017510467047000001494F208E
:1054E00088807047000600200149002088807047AE
:1054F0000006002010B58468007D89B28000120487
:1055000020581143FDF71BF910BDF8B515460246AA
:105510008368007D012680001F58D3682CB218587C
:105520000A2967D00BDC0A2919D20B007B441B79AE
:10553000DB189F441714143814292E334F5A0E29A0
:1055400074D006DC0B295AD00C295DD00D2906D168
:1055500064E00F296FD0412972D05B2908D0002662
:105560003046F8BDE9B21046FFF7AEFF0646F7E752
:1055700028460A2148433C21FBF72FF801B20022BC
:105580003846FDF76EF8EBE700682146FDF776FF39
:10559000E6E700682146FDF76FFFE1E70068214676
:1055A000FDF768FFDCE72806000E07D13846FDF757
:1055B000A8F8014600223846FDF75AF8E8B201285B
:1055C000CED13846FDF793F8014600223846FDF764
:1055D00048F8C5E73846FDF77AF8010C0904A0B28F
:1055E00001433846FDF7ABF8BAE740682146FDF7BE
:1055F00045FFB5E740682146FDF73EFFB0E740684C
:105600002146FDF737FFABE73846FDF760F881B27A
:10561000200401433846FDF792F8A1E7806821464F
:10562000FDF72CFF9CE701E005E009E080682146DA
:10563000FDF722FF94E780682146FDF71BFF8FE707
:1056400021463846FDF785F88AE7F8B50E46C16869
:10565000007D1C4680000858069D47693146384643
:10566000FAF7E0FE224631463846FAF7E0FE2A46CF
:1056700031463846FAF7E0FE0120F8BDFFB583B0A9
:10568000114C10480C9D1149A060CCC9CCC04A688F
:105690000968426001600E48FFF743FC0D48019520
:1056A00000900D4B0D4A0A49A068FDF73BF903989D
:1056B0000090069B059A0499A068FFF7E5FE07B0E5
:1056C000F0BD0000B408002000060020A80700205C
:1056D00080040020194F0008E14F00080550000821
:1056E00010B5164C206AC169C94389060FD4808C55
:1056F000C1B21348FFF722FC0088012802D002281B
:1057000003D004E0FFF7EAFE01E0FFF7EDFE206AB8
:10571000C069C043000602D40948FFF79FFC206A15
:10572000C069C043000707D40548FFF7FEFB206AA5
:1057300008210162FFF7D8FE10BD0000800500209F
:1057400080040020C18840884843000C704770B531
:1057500004460020A080E080A081E081608220706B
:1057600020626062208521462086203108734873BC
:10577000E28EE2858874C874204638306278012150
:105780000546FAF783FE3622A25E01212846FAF783
:105790007DFE70BD01212030C1747047F0B5044614
:1057A0002030007B83B00D46002825D1002A25D06B
:1057B000A08E7D215043C900FAF7F9FE401C80B24B
:1057C0000190208561780E270091E75F3846FAF74F
:1057D00004FF0646618B0A204143E0696843FAF7FB
:1057E000FCFE801B00040199FAF7F7FE0099414383
:1057F000216265853804606203B0F0BDA581618BCC
:105800000A204143E0696843FAF7E7FE61784843BC
:10581000E08100202085658503B0F0BD70B50C46A1
:105820000546018620466978FAF7D7FEE880AC8005
:1058300070BD02E008C8121F08C1002AFAD17047E3
:105840007047002001E001C1121F002AFBD1704700
:10585000014908607047000024060020F8B50B02DB
:1058600005B2041400261B0E601B052B4DD21F0031
:105870007F443F79FF19BF44021C49697C00002026
:105880000FB21646002A12D0781B70434349FAF72C
:10589000A4FE401905B2381B70434049FAF79DFE3B
:1058A000001900B22818C10F0818401000B20646AF
:1058B00072E02819C10F081840100026174605B2DB
:1058C000002A69D02846FAF7F5FE06463348611BE0
:1058D000C01B48434843FAF7EDFE044600F0BEFD06
:1058E0003146FAF78EFEFAF7F0FE05B2204600F0D8
:1058F000B5FD01463046FAF7D5FEFAF7E6FE00B2EE
:105900002818C10F0818401006B245E017460026B7
:105910000321FAF762FE00B2002F3DD01F498F42EB
:1059200009D12918201A09B200B20818C10F0818A5
:10593000401006B230E047437819E11B00B209B2CB
:105940004018C10F0818401006B225E00026002AB2
:1059500022D012498A4201D126461DE05043FAF76F
:105960003CFE401900B20019C10F0818401006B2E1
:1059700012E00026002A0FD008498A4201D12E46A3
:105980000AE0281B5043FAF728FE001900B240191C
:10599000C10F0818401006B23046F8BD10270000AD
:1059A000F0B503468C4609020E0E1DB23E49541B4B
:1059B0001B144C433D4FD11A83B079430091002012
:1059C000591B052E2ED237007F443F79FF19BF4463
:1059D00002122B515F00604601B200209A4221DC86
:1059E000AA421FDB8A4201DA491B4BE0591A009890
:1059F000FAF7F3FD15E0E918CC0F61184910002003
:105A000009B29A420EDCAA420CDB501A274A4043E4
:105A10005C1A50432146FAF7E0FD2146FAF7DDFD16
:105A2000401C00B203B0F0BD2F46084616460025C4
:105A300003210193FAF7D1FD019B01B29E4216DCCE
:105A4000BE4214DB7818B04204DA5A1AB24201DDC1
:105A5000154D0CE0B04206DDBE4204DD2046FAF7EB
:105A6000BCFD05B203E00098FAF7B7FD05B2284681
:105A700003B0F0BD0020AA42FADB9A4202DD0A48D8
:105A800003B0F0BD2046FAF7A8FD00B203B0F0BDA8
:105A900000209A42FADCAA42F1DB0098FAF79DFD59
:105AA00000B203B0F0BD000010270000F0D8FFFFE7
:105AB000884200DD08467047F3B5C3B0002000906F
:105AC00001900290C7220390049005900690D24363
:105AD000694607900A8452104A84042208A98A71F0
